:4000000000400020110000006D0600006D06000080B500AF00F02EFB80B584B000AF021CFB1D1A70204A3B1C0B3312781A701F4A3B1C0A3312781A700423013BFB6018E0BA
:400040001B4B1868391C0B31FA68131C5B009B18C3185B780B70164B1868391C0A31FA68131C5B009B18C3189B780B70FB68013BFB60FB68002B0ADB0D4B1968FA68131CF1
:400080005B009B185B5CFA1D12789A42D8D9094B3A1C0B3212781A60074B3A1C0A3212781A60BD4604B080BDCCF1FF0FCDF1FF0FD40000201CFF0B4020FF0B4080B500AF47
:4000C000234B12221A603020FFF7A6FF214B224A1278D2B21A60052000F070FD1F4B35221A6000F093FCFA235B00181C00F042FD012000F09BFC1A4B1A4A1A601A4B802290
:40010000D2051A60194B1A4A1A601A4B194A126808218A431A60FA23DB00181C00F030FC154B181C00F04AFD144BBC2292011A60134B144A1A60144B822212061A60134BF4
:400140008022D2021A60124B40221A60BD4680BD3000104028FF0B40FDF1FF0F2CFF0B4004010B40060000800C020B407C002E402D3E00006CF02E40DC050000000301403F
:400180000000014040FF008008010B4000010B401801014080B582B000AF72B6394B00221A60FB1D00221A7023E0FB1D1A78131C5B009B185B00344A9B183B603B681A78DD
:4001C000597809020A43997809040A43DB781B0613431A1C3B6819795B791B020B439BB2101C191C00F0CAFAFB1D1A78FB1D01321A70FB1D1B78012BD7D9244BEE221206F8
:400200001A60234BD82212041A60224BC02252031A60214B07221A60204BD82212041A601F4B07221A601F4B992212041A601E4B992212041A601D4B992212041A601C4B9A
:400240001B4A1278D2B202210A43D2B21A70194B184A1278D2B23C218A43D2B214210A43D2B21A70124B124A1278D2B216210A43D2B21A70FFF722FF00F090FABD4602B0DC
:4002800080BDC0466CF02E402811000000000240080004400802044000030440080304401803044000500F4020500F4030500F4000700F4001700F4010B5064C2378002B9E
:4002C00007D1054B002B02D0044800E000BF0123237010BDE8000020000000002011000008B5084B002B03D00748084900E000BF07480368002B03D0064B002B00D0984701
:4003000008BDC0460000000020110000EC000020C80000200000000080B582B000AF78600A1CFB1C1A707B68022B14D002DC012B05D036E0032B1AD0042B24D031E0FB1CCC
:400340001B78181C00F06AFAFF2000F0B3FAFF2000F08AFA2FE0FF2000F060FAFB1C1B78181C00F0A7FAFF2000F07EFA23E0FF2000F054FAFF2000F09DFAFB1C1B78181CC1
:4003800000F072FA17E0FB1C1B78181C00F046FAFB1C1B78181C00F08DFAFF2000F064FA09E0002000F03AFA002000F083FA002000F05AFAC046BD4602B080BD80B584B09B
:4003C00000AF78607B68022B0DD002DC012B05D018E0032B0CD0042B0FD013E03B1C0F3300221A7013E03B1C0F3355221A700EE03B1C0F33AA221A7009E03B1C0F33FF2255
:400400001A7004E03B1C0F3300221A70C0463B1C0F331B78181CBD4604B080BD80B500AF012000F025FD031C002B00D195E0002000F042FD031C0020191C00F05FFD031CDA
:400440001A1C484B1A80012000F036FD031C0120191C00F053FD031C1A1C434B1A80022000F02AFD031C0220191C00F047FD031C1A1C3E4B1A803C4B1B881AB23C4B1B8828
:400480001BB2A03B9A422EDB374B1B881AB2384B1B881BB2A0339A4225DC344B1B881AB2344B1B881BB2403B9A421CDB2F4B1B881AB2304B1B881BB240339A4213DC294B6A
:4004C0001B881AB22C4B1B881BB2A03B9A420ADB244B1B881AB2284B1B881BB2A0339A4201DC01233AE0204B1B881AB2234B9A4207DC1E4B1B881AB2214B9A4201DD022355
:400500002CE0194B1B881AB21E4B9A4207DD174B1B881AB21A4B9A4201DD03231EE0114B1B881AB2184B9A4207DD104B1B881AB2164B9A4201DD042310E00A4B1B881AB2F1
:40054000134B9A4207DC094B1B881AB20F4B9A4201DD052302E0002300E00023181CBD4680BDC046080100200A01002006010020CE000020D0000020CC000020660500002D
:400580001D050000A5060000EF0600008F050000E205000090B587B000AF01237B6101233B610023FB6000F01DFB00F053FC62B63C1C0B34FFF732FF031C23703B1C0B3331
:4005C0001B78052B0AD17B69012B02DD7B69013B7B617B69012B01DC01237B613B1C0B331B78042B0AD17B69032B02DC7B6901337B617B69032B01DD04237B613B1C0B33E7
:400600001B78032B0AD13B69032B02DC3B6901333B613B69032B01DD04233B613B1C0B331B78022B0AD13B69002B02DD3B6901333B613B69002B01DC01233B613B69181CF1
:40064000FFF7BCFE031C7B607B68DBB27A69101C191CFFF761FE02E0FB680133FB60FA68014B9A42F8DDA3E73F420F0080B500AFFEE7C04680B586B000AF224B7B61224BDB
:400680003B61204B7B6135E03B691B68FB603B695B68BB603B699B683B6000237B600CE0FB681A68BB681A60BB680433BB60FB680433FB607B6804337B607A683B689A42D0
:4006C000EED13B69DB683B6000237B6008E0BB6800221A60BB680433BB607B6804337B607A683B689A42F2D13B6910333B617B69013B7B617B69002BC6D100F0E3FCFFF79C
:4007000049FFFEE7010000006811000080B582B000AF154B144A126801218A431A6000237B600FE07B68032B04D8104B7A689200D35800E00E4B0F4A796889008B507B68CD
:4007400001337B607B682F2BECD9FFF723FD0A4B00221A60044B044A126801210A431A60BD4602B080BDC04600001040000000006D06000000000020C000002080B582B03F
:4007800000AF786039607A683B68101C00211A1C00F0BEFCBD4602B080BDC04680B500AF094B03221A60094B03221A60084B07221A60084B07221A60074B00221A600120AA
:4007C00000F00CF8BD4680BD300030403000314000033A4040033A40000E3F4080B584B000AF021CFB1D1A700B4B1B68FB60FB1D1B78002B05D0FB68802212061343FB6038
:4008000003E0FB685B005B08FB60034BFA681A60BD4604B080BDC04680033A4080B584B000AF021CFB1D1A700E4B1B68DAB23B1C0F3340218A431A70FB1D1B789B01DAB2D4
:4008400040231340D9B23B1C0F333A1C0F3212780A431A70034B3A1C0F3212781A60BD4604B080BD0002044080B584B000AF021CFB1D1A700E4B1B68DAB23B1C0F33402149
:400880008A431A70FB1D1B789B01DAB240231340D9B23B1C0F333A1C0F3212780A431A70034B3A1C0F3212781A60BD4604B080BD0003044080B584B000AF021CFB1D1A7040
:4008C0000D4B1B68D9B23B1C0F337F220A401A70FB1D1B78DB01D9B23B1C0F333A1C0F3212780A431A70044B3A1C0F3212781A60BD4604B080BDC0460003044080B500AFD2
:400900000B4B0B4A126801218A431A60094B094A126830218A4310210A431A60054B054A126807218A4301210A431A60BD4680BD00F02E4000FF2E4080B500AF0E4B0E4A5B
:40094000126802218A431A600C4B0C4A126807218A4302210A431A60084B084A126830218A4320210A431A60034B034A126801210A431A60BD4680BD00F02E4000FF2E403F
:4009800080B584B000AF78600023FB60154B154A126801210A431A60134B144A1A60144B134A1268802109020A431A607B68002B13D01023FB600DE0012000F0FFF800F064
:4009C00019F8031C002B02D00023FB6005E07B68013B7B607B68002BEED1FB68181CBD4604B080BD60F02E4078002E400220000010002E4080B500AF034B1A6801231340A6
:400A0000181CBD4680BDC0460C002E4080B500AFFFF774FF044B044A1268802109060A431A60BD4680BDC04600F02E4080B584B000AF78600C4B1A6801231340FB607B68C5
:400A4000002B02D0012B03D005E0FFF757FF06E0FFF772FF03E0002000F082F8C046FB68181CBD4604B080BD00F02E4080B584B000AF021C3960FB1D1A7080239B05FB6091
:400A8000FB1D1B781F2B02D9002000F069F8FB1D1B7810339B00FA68D3181B68BB60FB1D1B7810339B00FA68D3183A681A60BB68181CBD4604B080BD90B587B000AF0A1CF3
:400AC000FB1D011C1970BB1D1A70BB1D1B78032B02D9002000F044F8FB1D1B781F2B02D9002000F03DF8FB1D1A7803231340DB0006337B613C1C133400F07BFA031C237038
:400B0000FB1D1B789B08DBB29B0014495B181B68FB607B690322111C99400B1CDA43FB681340FB60BB1D1A787B69111C99400B1CFA681343FB60FB1D1B789B08DBB29B0029
:400B4000064A9B18FA681A603B1C13331B78181C00F053FABD4607B090BDC04600E400E080B582B000AF021CFB1D1A7001BEBD4602B080BD80B582B000AF786008E00C4B70
:400B80001B68181C00F02CFA7B680A4A9B187B607A6880231B029A42F1D8074B1B687A685343181C00F01CFABD4602B080BDC046E40000200080FFFFDC00002080B582B0F8
:400BC00000AF021CBB1D1A80BB1D1B88044A12785343181C00F004FABD4602B080BDC046E000002080B500AF064B1B78002B04D100F00AF8034B01221A7000F00FF9BD4603
:400C000080BDC0460401002090B585B000AF0F200321FFF751FF644B0F20191CFFF726FF624B07221A60624B614A1168614A1268002A01DA604A00E0604A0A431A60604B6B
:400C4000604A1A60604B614A1A60614B00221A60604B614A1A60614B5F4A1A60604B604A1268802149020A431A605E4B5D4A1268802149020A431A605B4B00221A605B4BB2
:400C800000221A605A4B01221A605A4B1B687B607A68594B13407B607B688022920513437B607B68012293437B60524B7A681A600023FB6072E0514BFA689200D258DC2319
:400CC0009B0113407B604E4AFB68D3181B787A6813437B60FB689B004A4A9B187A681A60464BFA689200D258012313400AD03E4B3D4A1168FA680120041C9440221C92B27B
:400D00000A431A603D4BFA689200D258022313400AD0364B354A1168FA680120041C9440221C92B20A431A60344BFA689200D25880239B00134003D08023DB00BB6002E03F
:400D400080235B01BB602D4BFA689200D25880235B00134005D12C4BFA6852000021D15209E0BB68002B00DA01335B1099B2264BFA685200D152BB68244A5343244A9B18A2
:400D8000181C244900F03CF9031C9BB219B2224BFA689200D150FB680133FB60FB68022B89D9BD4605B090BDC50F000020003A4000003A4080033A40702010137020001390
:400DC00004003A402500008018003A400000FF071C003A4010003A400800080014003A4000033A4040033A4028023A4038023A4018023A4030003A40FFFFFFDF3411000089
:400E00004011000080003A400C01002010270000E40C0000C81900001401002080B500AF0A4B1B68002B0EDBC046094B1B68002BFBDB064B054A1268802109060A431A60BE
:400E40000A20FFF7BBFEBD4680BDC04600003A4008023A4080B500AF044B044A1268802149020A431A60BD4680BDC04604003A4080B584B000AF78600023FB607A6803236D
:400E8000134011D00B4B1A6801231340FB60FB68002B03D17A6802231340F3D1FB68002B02D0044B01221A60FB68181CBD4604B080BDC04610023A4080B584B000AF78607B
:400EC0007B68022B02D90020FFF74AFE7B68022B08D87B689B00084A9B181B681B041B0CFB6001E00023FB60FB689BB21BB2181CBD4604B080BDC04680013A4080B584B0A4
:400F000000AF78600A1CBB1C1A807B68022B02D90020FFF725FE274B7A689200D2588023DB00134008D0BA1CBB1C00215B5E002B00DA0733DB101380BB1C1A881E4B7968AF
:400F40004900CB5A9BB29BB2D31A9AB2BB1C1A80BB1C00229B5E194A5A43BB1C00215B5E002B08DD164B79688900CB58002B00DA01335B1008E0124B79688900CB58002B7D
:400F800000DA01335B105B42D2180D4B79688900CB58101C191C00F033F8031C1A1C3B1C0E331A803B1C0E331B881BB2181CBD4604B080BD341100000C0100201027000070
:400FC0001401002080B582B000AF044B1B687B60024B7A681A60BD4602B080BD10023A400230800803D00138FDD1C046C046C0467047EFF3108072B6704780F31088704762
:40100000002941D010B4041C4C40A44601230022002900D54942002800D5404288422CD301242407A14204D2814202D209011B01F8E7E400A14204D2814202D249005B0088
:40104000F8E7884201D3401A1A434C08A04202D3001B5C0822438C08A04202D3001B9C082243CC08A04202D3001BDC082243002803D01B0901D00909E3E7101C6446002C21
:4010800000D5404210BC7047002806D003DB0020C043400801E08020000607B4024802A14018029003BDC046190000000029EBD003B5FFF7A7FF0EBC4243891A1847C04688
:4010C0007047C04670B50E4B0E4D0024ED1AAD101E1CAC4204D0A300F35898470134F8E700F030F8084B094D0024ED1AAD101E1CAC4204D0A300F35898470134F8E770BDE2
:4011000050110000501100005011000058110000031C8218934202D019700133FAE77047000000000400000000300F40000400400F40000400040000000400000004000048
:4011400000010200F8B5C046F8BC08BC9E467047E10200000D070000F8B5C046F8BC08BC9E467047B902000078110000C800002020000000380000000000000062060606F1
:40118000FB040000C0F1FF0F006CDC0280BB0000300000000000C05D000000000000000000000000000000000000000000000000000000000000000000000000000000009F
:4011C00000000000000000000000000000000000000000000000000000000000000000000000000000000000000000000000000000000000000000000000000000000000EF
:4012000000000000000000000000000000000000000000000000000000000000000000000000000000000000000000000000000000000000000000000000000000000000AE
:40124000000000000000000000000000000000000000000000000000000000000000000000000000000000000000000000000000000000000000000000000000000000006E
:40128000000000000000000000000000000000000000000000000000000000000000000000000000000000000000000000000000000000000000000000000000000000002E
:020000040001F9
:0200000490303A
:02000000B1AE9F
:0200000490402A
:4000000000000000000000000000000000000000000000000000000000000000000000000000000000000000000000000000000000000000000000000000000000000000C0
:400040000000000000000000000000000000000000000000000000000000000000000000000000000000000000000000000000000000000000000000000000000000000080
:0200000490501A
:0C00000000020E34119E00010E39C34CAA
:0200000490600A
:0100000001FE
:00000001FF