:4000000000400020110000006D0700006D07000080B500AF00F0AEFB80B584B000AF021CFB1D1A70204A3B1C0B3312781A701F4A3B1C0A3312781A700423013BFB6018E038
:400040001B4B1868391C0B31FA68131C5B009B18C3185B780B70164B1868391C0A31FA68131C5B009B18C3189B780B70FB68013BFB60FB68002B0ADB0D4B1968FA68131CF1
:400080005B009B185B5CFA1D12789A42D8D9094B3A1C0B3212781A60074B3A1C0A3212781A60BD4604B080BDCCF1FF0FCDF1FF0FD40000201CFF0B4020FF0B4080B500AF47
:4000C000284B12221A603020FFF7A6FF264B274A1278D2B21A60052000F0C0FD244B35221A6000F0E3FCFA235B00181C00F092FD012000F0EBFC1F4B1F4A1A601F4B80222D
:40010000D2051A601E4B1F4A1A601F4B1E4A126808218A431A60FA23DB00181C00F080FC1A4B181C00F09AFD194BBC2292011A60184B194A1A60194BBC2292011A60154B70
:40014000174A1A60174B822212061A60164B8022D2021A60154B41221A60154B40221A60BD4680BD3000104028FF0B40FDF1FF0F2CFF0B4004010B40060000800C020B406F
:400180007C002E402D3E00006CF02E40DC050000040301400000014041FF00800003014040FF008008010B4000010B402C0101401801014080B582B000AF72B6454B00229B
:4001C0001A60FB1D00221A7023E0FB1D1A78131C5B009B185B00404A9B183B603B681A78597809020A43997809040A43DB781B0613431A1C3B6819795B791B020B439BB21A
:40020000101C191C00F03AFBFB1D1A78FB1D01321A70FB1D1B78012BD7D9304A304B101C191C00F03BFB2F4BEE2212061A602E4BC02292041A602D4BCC2292051A602C4B41
:40024000D82212041A602B4B40221A602A4BC02252031A60294BC7221A60294BD82212041A60284B07221A60274B992212041A60264B992212041A60254B802292051A60F5
:40028000244B992212041A60234BC02212061A60224B224A1278D2B202210A43D2B21A701F4B1F4A1278D2B23C218A43D2B214210A43D2B21A70194B184A1278D2B2162113
:4002C0000A43D2B21A70FFF7F9FE00F027FBBD4602B080BD6CF02E40701400007C14000090140000000002400002024000030240080004400002044008020440000304403E
:40030000080304401803044000500F4020500F4028500F4030500F4038500F4000700F4001700F4010B5064C2378002B07D1054B002B02D0044800E000BF0123237010BD54
:40034000E8000020000000004814000008B5084B002B03D00748084900E000BF07480368002B03D0064B002B00D0984708BDC0460000000048140000EC000020C8000020CE
:400380000000000080B582B000AF78600A1CFB1C1A707B68072B00D97BE07B689A004C4BD3181B689F46FB1C1B78DB43DBB2181C00F0E8FEFF2000F0F5FEFF2000F084FFE5
:4003C0007DE0FF2000F0DEFEFB1C1B78DB43DBB2181C00F0E7FEFF2000F076FF6FE0FF2000F0D0FEFF2000F0DDFEFB1C1B78DB43DBB2181C00F068FF61E0FB1C1B78DB43D4
:40040000DBB2181C00F0BEFEFB1C1B78DB43DBB2181C00F0C7FEFF2000F056FF4FE0FB1C1B78DB43DBB2181C00F0ACFEFF2000F0B9FEFB1C1B78DB43DBB2181C00F044FFD9
:400440003DE0FF2000F09EFEFB1C1B78DB43DBB2181C00F0A7FEFB1C1B78DB43DBB2181C00F032FF2BE0FB1C1B78DB43DBB2181C00F088FEFB1C1B78DB43DBB2181C00F069
:4004800091FEFB1C1B78DB43DBB2181C00F01CFF15E0FB1C1B78DB43DBB2181C00F072FEFB1C1B78DB43DBB2181C00F07BFEFB1C1B78DB43DBB2181C00F006FFC046C823DA
:4004C0005B00181C00F0A6FBBD4602B080BDC0464C14000080B584B000AF78607B68022B0DD002DC012B05D018E0032B0CD0042B0FD013E03B1C0F33FF221A7013E03B1C37
:400500000F33AA221A700EE03B1C0F3355221A7009E03B1C0F3300221A7004E03B1C0F33FF221A70C0463B1C0F331B78181CBD4604B080BD80B500AF012000F0E9FC031CF2
:40054000002B00D195E0002000F006FD031C0020191C00F023FD031C1A1C484B1A80012000F0FAFC031C0120191C00F017FD031C1A1C434B1A80022000F0EEFC031C0220B7
:40058000191C00F00BFD031C1A1C3E4B1A803C4B1B881AB23C4B1B881BB2A03B9A422EDB374B1B881AB2384B1B881BB2A0339A4225DC344B1B881AB2344B1B881BB2403BFD
:4005C0009A421CDB2F4B1B881AB2304B1B881BB240339A4213DC294B1B881AB22C4B1B881BB2A03B9A420ADB244B1B881AB2284B1B881BB2A0339A4201DC01233AE0204BBA
:400600001B881AB2234B9A4207DC1E4B1B881AB2214B9A4201DD02232CE0194B1B881AB21E4B9A4207DD174B1B881AB21A4B9A4201DD03231EE0114B1B881AB2184B9A42D5
:4006400007DD104B1B881AB2164B9A4201DD042310E00A4B1B881AB2134B9A4207DC094B1B881AB20F4B9A4201DD052302E0002300E00023181CBD4680BDC0460A0100200D
:400680000C01002008010020CE000020D0000020CC000020660500000F050000A5060000EF0600008F050000E205000090B585B000AF0123FB600123BB6000F0E3FA00F0DC
:4006C00019FC00F0DDFC00F07DFD62B6FC1DFFF731FF031C2370FB1D1B78052B0AD1FB68012B02DDFB68013BFB60FB68012B01DC0723FB60FB1D1B78042B0AD1FB68062B51
:4007000002DCFB680133FB60FB68062B01DD0123FB60FB1D1B78032B0AD1BB68032B02DCBB680133BB60BB68032B01DD0423BB60FB1D1B78022B0AD1BB68002B02DDBB682F
:40074000013BBB60BB68002B01DC0123BB60BB68181CFFF7BFFE031C3B603B68DBB2FA68101C191CFFF70EFEB0E7C04680B500AFFEE7C04680B586B000AF224B7B61224BC3
:400780003B61204B7B6135E03B691B68FB603B695B68BB603B699B683B6000237B600CE0FB681A68BB681A60BB680433BB60FB680433FB607B6804337B607A683B689A42CF
:4007C000EED13B69DB683B6000237B6008E0BB6800221A60BB680433BB607B6804337B607A683B689A42F2D13B6910333B617B69013B7B617B69002BC6D100F0F7FDFFF786
:4008000055FFFEE701000000A815000080B582B000AF154B144A126801218A431A6000237B600FE07B68032B04D8104B7A689200D35800E00E4B0F4A796889008B507B687C
:4008400001337B607B682F2BECD9FFF7B3FC0A4B00221A60044B044A126801210A431A60BD4602B080BDC04600001040000000006D07000000000020C000002080B582B0AE
:4008800000AF786039607A683B68101C00211A1C00F0D2FDBD4602B080BDC04680B586B000AF7860396000233B6100237B612EE07B699B007A68D3181B68BB603B1C0F337F
:4008C000BA681A70BB68FF229343BB6017E03B695B003A68D3181B781A1CBB68D3183A69520039688A1852781A703B6901333B613B1C0F331A783B1C0F33013A1A703B1CDD
:400900000F331B78002BE2D17B6901337B617B69042BCDD9BD4606B080BDC04680B500AF094B03221A60094B03221A60084B07221A60084B07221A60074B00221A60012096
:4009400000F00CF8BD4680BD300030403000314000033A4040033A40000E3F4080B584B000AF021CFB1D1A700B4B1B68FB60FB1D1B78002B05D0FB68802212061343FB60B6
:4009800003E0FB685B005B08FB60034BFA681A60BD4604B080BDC04680033A4080B500AF0B4B0B4A126801218A431A60094B094A126830218A4310210A431A60054B054A6F
:4009C000126807218A4301210A431A60BD4680BD00F02E4000FF2E4080B500AF0E4B0E4A126802218A431A600C4B0C4A126807218A4302210A431A60084B084A12683021A5
:400A00008A4320210A431A60034B034A126801210A431A60BD4680BD00F02E4000FF2E4080B584B000AF78600023FB60154B154A126801210A431A60134B144A1A60144BB3
:400A4000134A1268802109020A431A607B68002B13D01023FB600DE0012000F0FFF800F019F8031C002B02D00023FB6005E07B68013B7B607B68002BEED1FB68181CBD46D7
:400A800004B080BD60F02E4078002E400220000010002E4080B500AF034B1A6801231340181CBD4680BDC0460C002E4080B500AFFFF774FF044B044A1268802109060A4381
:400AC0001A60BD4680BDC04600F02E4080B584B000AF78600C4B1A6801231340FB607B68002B02D0012B03D005E0FFF757FF06E0FFF772FF03E0002000F082F8C046FB680A
:400B0000181CBD4604B080BD00F02E4080B584B000AF021C3960FB1D1A7080239B05FB60FB1D1B781F2B02D9002000F069F8FB1D1B7810339B00FA68D3181B68BB60FB1D53
:400B40001B7810339B00FA68D3183A681A60BB68181CBD4604B080BD90B587B000AF0A1CFB1D011C1970BB1D1A70BB1D1B78032B02D9002000F044F8FB1D1B781F2B02D94F
:400B8000002000F03DF8FB1D1A7803231340DB0006337B613C1C133400F0BFFB031C2370FB1D1B789B08DBB29B0014495B181B68FB607B690322111C99400B1CDA43FB6808
:400BC0001340FB60BB1D1A787B69111C99400B1CFA681343FB60FB1D1B789B08DBB29B00064A9B18FA681A603B1C13331B78181C00F097FBBD4607B090BDC04600E400E0AD
:400C000080B582B000AF021CFB1D1A7001BEBD4602B080BD80B582B000AF786008E00C4B1B68181C00F070FB7B680A4A9B187B607A6880231B029A42F1D8074B1B687A682B
:400C40005343181C00F060FBBD4602B080BDC046E40000200080FFFFDC00002080B582B000AF021CBB1D1A80BB1D1B88044A12785343181C00F048FBBD4602B080BDC046FB
:400C8000E000002080B500AF064B1B78002B04D100F00AF8034B01221A7000F00FF9BD4680BDC0460401002090B585B000AF0F200321FFF751FF644B0F20191CFFF726FF2C
:400CC000624B07221A60624B614A1168614A1268002A01DA604A00E0604A0A431A60604B604A1A60604B614A1A60614B00221A60604B614A1A60614B5F4A1A60604B604AD3
:400D00001268802149020A431A605E4B5D4A1268802149020A431A605B4B00221A605B4B00221A605A4B01221A605A4B1B687B607A68594B13407B607B688022920513431A
:400D40007B607B68012293437B60524B7A681A600023FB6072E0514BFA689200D258DC239B0113407B604E4AFB68D3181B787A6813437B60FB689B004A4A9B187A681A6068
:400D8000464BFA689200D258012313400AD03E4B3D4A1168FA680120041C9440221C92B20A431A603D4BFA689200D258022313400AD0364B354A1168FA680120041C944002
:400DC000221C92B20A431A60344BFA689200D25880239B00134003D08023DB00BB6002E080235B01BB602D4BFA689200D25880235B00134005D12C4BFA6852000021D152E8
:400E000009E0BB68002B00DA01335B1099B2264BFA685200D152BB68244A5343244A9B18181C244900F080FA031C9BB219B2224BFA689200D150FB680133FB60FB68022BE1
:400E400089D9BD4605B090BD6510000020003A4000003A4080033A40702010137020001304003A402500008018003A400000FF071C003A4010003A400800080014003A40B6
:400E800000033A4040033A4028023A4038023A4018023A4030003A40FFFFFFDF741500008015000080003A401001002010270000E40C0000C81900001801002080B500AF18
:400EC0000A4B1B68002B0EDBC046094B1B68002BFBDB064B054A1268802109060A431A600A20FFF7BBFEBD4680BDC04600003A4008023A4080B500AF044B044A12688021DE
:400F000049020A431A60BD4680BDC04604003A4080B584B000AF78600023FB607A680323134011D00B4B1A6801231340FB60FB68002B03D17A6802231340F3D1FB68002B79
:400F400002D0044B01221A60FB68181CBD4604B080BDC04610023A4080B584B000AF78607B68022B02D90020FFF74AFE7B68022B08D87B689B00084A9B181B681B041B0C21
:400F8000FB6001E00023FB60FB689BB21BB2181CBD4604B080BDC04680013A4080B584B000AF78600A1CBB1C1A807B68022B02D90020FFF725FE274B7A689200D258802373
:400FC000DB00134008D0BA1CBB1C00215B5E002B00DA0733DB101380BB1C1A881E4B79684900CB5A9BB29BB2D31A9AB2BB1C1A80BB1C00229B5E194A5A43BB1C00215B5E8F
:40100000002B08DD164B79688900CB58002B00DA01335B1008E0124B79688900CB58002B00DA01335B105B42D2180D4B79688900CB58101C191C00F077F9031C1A1C3B1CBF
:401040000E331A803B1C0E331B881BB2181CBD4604B080BD7415000010010020102700001801002080B582B000AF044B1B687B60024B7A681A60BD4602B080BD10023A4051
:4010800080B500AF064B1B78002B04D100F00AF8034B01221A7000F03DF8BD4680BDC0460501002090B583B000AFFF2000F040F8B82000F057F8012000F064F8012000F0E7
:4010C00071F8FC1D00F029F9031C23700F4B0F4A1278D2B201210A43D2B21A70FB1D1B78181C00F01EF90A4B094A1278D2B202218A43D2B21A70064B054A1278D2B20421FF
:401100008A43D2B21A70BD4603B090BD93000F4073000F4080B500AF044B044A1278D2B201210A43D2B21A70BD4680BD73000F4080B582B000AF021CFB1D1A70FB1D1B789E
:40114000002B07D0054BFA1D12781A70044BFA1D12781A70BD4602B080BDC04643000F4003000F4080B582B000AF021CFB1D1A70034BFA1D12781A70BD4602B080BDC04655
:4011800013000F4080B582B000AF021CFB1D1A70034BFA1D12781A70BD4602B080BDC04623000F4080B582B000AF021CFB1D1A70034BFA1D12781A70BD4602B080BDC046CD
:4011C00033000F4080B500AF064B1B78002B04D100F00AF8034B01221A7000F03DF8BD4680BDC0460601002090B583B000AFFF2000F040F8B82000F057F8012000F064F834
:40120000012000F071F8FC1D00F087F8031C23700F4B0F4A1278D2B201210A43D2B21A70FB1D1B78181C00F07CF80A4B094A1278D2B202218A43D2B21A70064B054A12789B
:40124000D2B204218A43D2B21A70BD4603B090BD92000F4072000F4080B500AF044B044A1278D2B201210A43D2B21A70BD4680BD72000F4080B582B000AF021CFB1D1A7062
:40128000FB1D1B78002B07D0054BFA1D12781A70044BFA1D12781A70BD4602B080BDC04642000F4002000F4080B582B000AF021CFB1D1A70034BFA1D12781A70BD4602B0AE
:4012C00080BDC04612000F4080B582B000AF021CFB1D1A70034BFA1D12781A70BD4602B080BDC04622000F4080B582B000AF021CFB1D1A70034BFA1D12781A70BD4602B08E
:4013000080BDC04632000F400230800803D00138FDD1C046C046C0467047EFF3108072B6704780F310887047002941D010B4041C4C40A44601230022002900D549420028EE
:4013400000D5404288422CD301242407A14204D2814202D209011B01F8E7E400A14204D2814202D249005B00F8E7884201D3401A1A434C08A04202D3001B5C0822438C0819
:40138000A04202D3001B9C082243CC08A04202D3001BDC082243002803D01B0901D00909E3E7101C6446002C00D5404210BC7047002806D003DB0020C043400801E08020F3
:4013C000000607B4024802A14018029003BDC046190000000029EBD003B5FFF7A7FF0EBC4243891A1847C0467047C04670B50E4B0E4D0024ED1AAD101E1CAC4204D0A300CA
:40140000F35898470134F8E700F0BCF8084B094D0024ED1AAD101E1CAC4204D0A300F35898470134F8E770BD90150000901500009015000098150000031C8218934202D033
:4014400019700133FAE770470000000092040000A6030000C2030000DE030000FA0300001E04000042040000660400000400000000300F40000400400F40000440320F4088
:4014800024330F4002420F4009430F4002600F40050109010B020D010F022E013303360139883F4040014601480549FF4AFF4BFF4C024D204EF052035804590F5A0F5B0405
:4014C0005F01624863AD64C066C0810483088501870289048B0895019904A501A702AE01B001B103B70CB982C001C650C714C839C9FFCAFFCBFFCC02CD20CEF0D207D80479
:40150000D90CDA0CDB04DF01E248E3ADE4C0E6C0100215401B011F802081258026042B203028380239143E103F884180458048204F08500953205740680269146D406E1092
:401540007B017F8084408C018E04C481CA02CC06CE77D018DE88E0026102D8025908661086108D0AA502D602D801E002E4080101100100000004000000040000000400002F
:4015800000010200F8B5C046F8BC08BC9E4670474D0300000D080000F8B5C046F8BC08BC9E46704725030000B8150000C80000202000000040000000000000006206060686
:4015C000FB040000C0F1FF0F006CDC0280BB0000300000000000C05D000000000000000000000000000000000000000000000000000000000000000000000000000000005B
:4016000000000000000000000000000000000000000000000000000000000000000000000000000000000000000000000000000000000000000000000000000000000000AA
:40164000000000000000000000000000000000000000000000000000000000000000000000000000000000000000000000000000000000000000000000000000000000006A
:40168000000000000000000000000000000000000000000000000000000000000000000000000000000000000000000000000000000000000000000000000000000000002A
:4016C00000000000000000000000000000000000000000000000000000000000000000000000000000000000000000000000000000000000000000000000000000000000EA
:020000040001F9
:0200000490303A
:0200000066FA9E
:0200000490402A
:4000000000000000000000000000000000000000000000000000000000000000000000000000000000000000000000000000000000000000000000000000000000000000C0
:400040000000000000000000000000000000000000000000000000000000000000000000000000000000000000000000000000000000000000000000000000000000000080
:0200000490501A
:0C00000000020E34119E00010E3B7898A7
:0200000490600A
:0100000001FE
:00000001FF