:400000000040002011000000FD070000FD07000080B500AF00F0F6FB80B584B000AF021CFB1D1A70204A3B1C0B3312781A701F4A3B1C0A3312781A700423013BFB6018E0D0
:400040001B4B1868391C0B31FA68131C5B009B18C3185B780B70164B1868391C0A31FA68131C5B009B18C3189B780B70FB68013BFB60FB68002B0ADB0D4B1968FA68131CF1
:400080005B009B185B5CFA1D12789A42D8D9094B3A1C0B3212781A60074B3A1C0A3212781A60BD4604B080BDCCF1FF0FCDF1FF0FD00000201CFF0B4020FF0B4080B500AF4B
:4000C000244B12221A600C20FFF7A6FF224B0C221A60052001F0D8FA204B214A1278D2B21A60052001F040FE01F034FCFA235B00181C01F015FE012001F03CFC194B1A4A8A
:400100001A601A4B8022D2051A60194B194A1A60194B194A126808218A431A60FA23DB00181C01F0B1FB154B181C01F01DFE144BB02212011A60134B134A1A60134BA62279
:4001400012061A60124B40221A60024B00221A60BD4680BD300010402CFF0B4028FF0B40D9F1FF0F04010B40060000800C020B407C002E402D3E00006CF02E40DC0500001C
:40018000000301400000014040FF008008010B401801014080B582B000AF72B6484B00221A60484B01221A70FB1D00221A7023E0FB1D1A78131C5B009B185B00424A9B1858
:4001C0003B603B681A78597809020A43997809040A43DB781B0613431A1C3B6819795B791B020B439BB2101C191C00F08FFBFB1D1A78FB1D01321A70FB1D1B78012BD7D9F9
:40020000324A334B101C191C00F090FB314BC02292041A60304BCC2292051A602F4B00221A602F4B00221A602E4B40221A602E4BC02252031A602D4BF8221A602C4B2D4A5B
:400240001A602D4B38221A602C4B992212041A602B4B802252051A602A4B2B4A1A602B4BA82292031A602A4BD02252051A60294B02221A60284B02221A60284B274A127891
:40028000D2B202210A43D2B21A70254B244A1278D2B23C218A43D2B214210A43D2B21A701E4B1E4A1278D2B216210A43D2B21A70FFF704FF00F07AFBBD4602B080BDC0464B
:4002C0006CF02E401C700F409C150100A8150100B815010000020240000302400000024008000440000204400802044000030440080304404900D8001803044020500F409B
:4003000028500F4030500F400400990034500F4038500F402000104000800F4000700F4001700F4010B5064C2378002B07D1054B002B02D0044800E000BF0123237010BDB1
:40034000A0030020000000006C15010008B5084B002B03D00748084900E000BF07480368002B03D0064B002B00D0984708BDC046000000006C150100A4030020C80000200C
:400380000000000080B500AF114B1B78032B1BD0042B15D0022B00D017E00E4B01221A7000F0ECFE01F02EF80B4B1B78DBB2012B05D000F03DF8094B05221A7005E004E0E8
:4003C000002000F095FB00E0C046BD4680BDC046E8240020C5240020EC240020DC24002080B582B000AF786039607B68282B15D002D8012B14D016E0412B13D0432B00D09D
:4004000011E03B685B88162B04D83B685A88074B1A8008E0054B17221A8004E0C04602E0C04600E0C046BD4602B080BDCC00002080B584B000AF00F02FF8031C002B1FD0AE
:40044000124B1B78012B1DD13B1D114A1A603B1D01229A803B1D0E221A810E4B3A1D19785B781B02194300230904090C1B0C1B040B43181C111C0CF059F801F0F7FE01E0B2
:4004800001F086FCBD4604B080BDC046C5240020CF240020F024002080B500AF012000F0CDFF031C002B00D1DFE0002000F0EAFF031C0020191C01F007F8031C1A1C6D4B7A
:4004C0001A80012000F0DEFF031C0120191C00F0FBFF031C1A1C684B1A80022000F0D2FF031C0220191C00F0EFFF031C1A1C634B1A80614B1B881AB2614B9A4232DD5E4B44
:400500001B881AB25F4B9A422CDC5C4B1B881AB25D4B9A4226DD594B1B881AB25B4B9A4220DC544B1B881AB2594B9A421ADD514B1B881AB2574B9A4214DC574B1B78002B32
:4005400010D0554B00221A70544B70221A70002001F06EFC002001F091FC002001F0B4FC012383E0444B1B881AB24D4B9A421ADC424B1B881AB24B4B9A4214DD464B1B7848
:40058000042B10D0444B04221A70444B62221A70FF2001F04DFC002001F070FC002001F093FC012362E0344B1B881AB23E4B9A421ADD324B1B881AB23A4B9A4214DD364B6B
:4005C0001B78032B10D0344B03221A70334B73221A70FF2001F052FC002001F029FC002001F072FC012341E0224B1B881AB22F4B9A421ADC214B1B881AB22A4B9A4214DDF2
:40060000254B1B78022B10D0234B02221A70234B52221A70FF2001F057FC002001F02EFC002001F005FC012320E0124B1B881AB21D4B9A4217DD114B1B881AB2194B9A423F
:4006400011DD154B1B78012B0DD0134B01221A70124B4C221A70FF2001F010FCFF2001F033FC012302E0002300E00023181CBD4680BDC046D8240020DA240020CC240020E5
:400680009B040000EC040000F103000042040000A5040000F6040000CA240020CF2400204C0400007D040000450500001A04000080B500AF0E4B1B78052B16D89A000D4B94
:4006C000D3181B689F4600F0A5FF094B01221A700BE000F09FFF064B01221A7005E000F057FF02E000F054FFC046BD4680BDC046DC2400208015010090B583B000AFFC1D09
:4007000000F0CBFF031C2370BC1D03F064F8031C2370BB1D1B78062B03D0BB1D1B78042B09D1194B1B78052B05D1174B03221A7001F048FB20E0BB1D1B78022B1CD0124B6D
:400740001B78052B0FD1104B03221A70022001F057F800F0F9FF01F01BFB00F0E7FF002001F04EF808E0084B1B78042B04D1064B02221A7001F00CFBFB1D1B78181C00F0B6
:4007800090FFBD4603B090BDDC24002080B500AF62B600F0E5FF032001F0BCF8134B181C00F05EF901E001F061FD114B1B78012BF9D0104B00221A700F4B01221A7000F004
:4007C000DDFC00F07DFC00F01DFE01F04FFD032001F044FD084B1B78012B01D1FFF7D2FDFFF766FFFFF788FFEFE7C046E1030000E8240020CA240020DC24002080B500AF9B
:40080000FEE7C04680B586B000AF224B7B61224B3B61204B7B6135E03B691B68FB603B695B68BB603B699B683B6000237B600CE0FB681A68BB681A60BB680433BB60FB687B
:400840000433FB607B6804337B607A683B689A42EED13B69DB683B6000237B6008E0BB6800221A60BB680433BB607B6804337B607A683B689A42F2D13B6910333B617B69B5
:40088000013B7B617B69002BC6D101F0A1FCFFF77DFFFEE701000000FC19010080B582B000AF154B144A126801218A431A6000237B600FE07B68032B04D8104B7A6892001E
:4008C000D35800E00E4B0F4A796889008B507B6801337B607B682F2BECD9FFF75BFC0A4B00221A60044B044A126801210A431A60BD4602B080BDC04600001040000000007C
:40090000FD07000000000020C000002080B582B000AF786039607A683B68101C00211A1C01F094FCBD4602B080BDC04680B586B000AF7860396000233B6100237B612EE054
:400940007B699B007A68D3181B68BB603B1C0F33BA681A70BB68FF229343BB6017E03B695B003A68D3181B781A1CBB68D3183A69520039688A1852781A703B6901333B61B9
:400980003B1C0F331A783B1C0F33013A1A703B1C0F331B78002BE2D17B6901337B617B69032BCDD9BD4606B080BDC04680B500AF094B03221A60094B03221A60084B382285
:4009C0001A60084B38221A60074B00221A60012000F00CF8BD4680BD300030403000314000033A4040033A40000E3F4080B584B000AF021CFB1D1A700B4B1B68FB60FB1DE7
:400A00001B78002B05D0FB68802212061343FB6003E0FB685B005B08FB60034BFA681A60BD4604B080BDC04680033A4080B500AF064B00221A70064B00221A70054B002285
:400A40001A7000F009F8BD4680BDC046F3240020EC240020F224002080B500AFBD4680BD90B585B000AF78603B1C0E3301221A80194B1B78002B04D1FFF7D8FF164B012256
:400A80001A707B68002B1FD0144B7A681A603C1C0E34134A134B101C191C172201F0FCFB031C23803B1C0E331B88002B0CD10E4B01221A703C1C0E340C4B181C0F21092292
:400AC0000CF0A2F9031C23803B1C0E331B88181CBD4605B090BDC046C0030020E02400200D0E0000C8030020E8240020B416010090B585B000AF021CFB1D1A70294B1B782F
:400B0000042B42D1284B1B78DBB21A1C042313403BD1FB1D1B78002B0BD1244B0A221A82224B5B6820221A80204B5B6830225A8010E0FB1D1B78012B0CD11C4B96221A8276
:400B40001A4B5B68C822D2001A80184B5B688022D2015A80164BFA1D12781A703C1C0E34124B181C0AF09EFB031C23803B1C0E331B88002B08D10C4B1B78DBB20422134344
:400B8000DAB2094B1A7005E004E03B1C0E33832252001A803B1C0E331B88181CBD4605B090BDC046E8240020F324002024010020F224002080B584B000AF78600A1CFB1C54
:400BC0001A700023BB60BB68002B20D07B689A79BB681A703B1C0F3300221A7012E03B1C0F331B780133BA68D3183A1C0F32127879688A5C1A703B1C0F331A783B1C0F3372
:400C000001321A703B1C0F331B78052BE7D9BD4604B080BD80B582B000AF78607B681B781A1C7B6801331B781B029BB213439BB2181CBD4602B080BD90B585B000AF78606F
:400C40003B1C0F3300221A707B689A890B239A4237D17B681A1D7B683C1C0F34101C00211A1C40230CF0E8F8031C23703B1C0F331B78002B1DD17B685B68181CFFF7CAFF2D
:400C8000031C1A1C022313409BB2002B08D0104B1B68822251007A68081C111C984708E00B4B1B680622111CFF317A68081C111C9847084B1B78DBB201229343DAB2054B92
:400CC0001A703B1C0F331B78181CBD4605B090BDE0240020F324002090B585B000AF78603C1C0F347B68181CFFF7A6FF031C2370144B1B78DBB21A1C012313401FD13B1C37
:400D00000F331B78002B16D03B1C083312229A707B689A893B1C08331A803B1C08333A1C0F321278DA707B683A1C08321868111C0BF0DEFB03E07B6818680BF041FCBD4659
:400D400005B090BDF324002080B582B000AF7860BD4602B080BDC04680B500AF034B00225A70024B00221A70BD4680BDF024002080B582B000AF7860BD4602B080BDC046E3
:400D800080B500AFBD4680BD80B584B000AF78603B1C0E3300221A707B689B79002B1CD13B1C0F3300221A7012E03B1C0F331B787A68D35C002B04D03B1C0E3301221A7014
:400DC0000BE03B1C0F331A783B1C0F3301321A703B1C0F331B78052BE7D93B1C0E331B78181CBD4604B080BD80B582B000AF021CBB1D1A80BD4602B080BDC04680B582B013
:400E000000AF7860BD4602B080BDC04680B584B000AF021C3960FB1D1A709D4B1B78DBB201221343DAB29A4B1A70FB1D1B78712B00D912E19A00974BD3181B689F463B1C0D
:400E40000C3307221A703B1C0C3300225A703B1C0C33181C02F0EEFC3B1C0C3307221A703B1C0C3301225A703B1C0C33181C02F0E1FC894B1B68181CFFF786FF031C002BA3
:400E800011D0854B1B68181C01F0F4F9824B1B68181C0021FFF78EFE7F4B1B68181C0121FFF788FE0DE07D4B181C01F0E3F97B4B181C0021FFF77EFE784B181C0121FFF754
:400EC00079FE03200AF0B0F8754B04221A70C5E03B68181CFFF74CFFC0E03B681A78714B1A70BBE06A4B1B78DBB21A1C202313400ED16D4B1B78102B02D16B4B0522DA70D3
:400F00006A4B1A78684B101C191C0AF095F9A5E0A4E03B68181CFFF771FF9FE03B68181CFFF76CFF5E4B02221A7097E05C4B04221A7093E05A4B1B78022B41D0544B1B7891
:400F4000DBB21A1C012313403AD0514B1B78DBB21A1C042313400BD0514B03221A704C4B1B78DBB204229343DAB2494B1A7027E0474B1B78DBB21A1C082313400BD0484B63
:400F800004221A70424B1B78DBB208229343DAB23F4B1A7014E0424B1B78032B10D1404B04221A70424B1B78002B09D10120FFF79FFD031C002B03D1394B03221A704DE080
:400FC0004CE03B681B88181CFFF70EFF46E0374A3B68111C1A1C0223081C111C1A1C01F02CF9324B1B789A00324BD318324A111C1A1C0423081C111C1A1C01F01EF9FFF73C
:40100000BFFE2BE0FFF7A8FE28E03B685B88162B05D83B1C0E333A6852881A8003E03B1C0E3317221A803B683A1C0E321288198800230904090C1B0C1B040B43181C111CF6
:401040000BF062FA0AE03B68181CFFF745FE05E03B68181CFFF778FE00E0C0460C4B1B78DBB21A1C112313400FD0094B1B78DBB201229343DAB2064B1A70104B1B68FA1D35
:4010800011783A68081C111C9847BD4604B080BDF3240020001801004001002038010020E8240020EC2400205C010020F0240020F224002080160100E4240020E0240020B1
:4010C00080B500AF00F050F8054B181C00F00EF8032000F017F800F03DF8BD4680BDC046E510000080B500AFBD4680BD80B582B000AF7860024B7A685A64BD4602B080BDE7
:401100000000002090B585B000AF021CFB1D1A700E23FB603C1C0B3400F0BFFA031C23700A4B0A4A11680A4A1140FA1D1078FA68041C9440221C0A431A603B1C0B331B783F
:40114000181C00F0AEFABD4605B090BD00E400E0FF3FFFFF80B500AF024B02221A60BD4680BDC04600E100E080B500AF024B02221A60BD4680BDC04680E100E080B500AF8E
:40118000064B1B78002B04D100F00AF8034B01221A7000F00FF9BD4680BDC0466010002090B585B000AF0F20032100F05BFD644B0F20191C00F030FD624B07221A60624B9F
:4011C000614A1168614A1268002A01DA604A00E0604A0A431A60604B604A1A60604B614A1A60614B00221A60604B614A1A60614B5F4A1A60604B604A1268802149020A4318
:401200001A605E4B5D4A1268802149020A431A605B4B00221A605B4B00221A605A4B01221A605A4B1B687B607A68594B13407B607B688022920513437B607B680122934311
:401240007B60524B7A681A600023FB6072E0514BFA689200D258DC239B0113407B604E4AFB68D3181B787A6813437B60FB689B004A4A9B187A681A60464BFA689200D2586B
:40128000012313400AD03E4B3D4A1168FA680120041C9440221C92B20A431A603D4BFA689200D258022313400AD0364B354A1168FA680120041C9440221C92B20A431A6063
:4012C000344BFA689200D25880239B00134003D08023DB00BB6002E080235B01BB602D4BFA689200D25880235B00134005D12C4BFA6852000021D15209E0BB68002B00DA1B
:4013000001335B1099B2264BFA685200D152BB68244A5343244A9B18181C244900F0F6FE031C9BB219B2224BFA689200D150FB680133FB60FB68022B89D9BD4605B090BD0C
:401340006D16000020003A4000003A4080033A40702010137020001304003A402500008018003A400000FF071C003A4010003A400800080014003A4000033A4040033A40D0
:4013800028023A4038023A4018023A4030003A40FFFFFFDFC8190100D419010080003A40F424002010270000E40C0000C8190000FC24002080B500AF0A4B1B68002B0EDBA1
:4013C000C046094B1B68002BFBDB064B054A1268802109060A431A600A2000F0C5FCBD4680BDC04600003A4008023A4080B500AF034B034A1268520052081A60BD4680BD00
:4014000000003A4080B500AF044B044A1268802149020A431A60BD4680BDC04604003A4080B500AF034B034A1168034A0A401A60BD4680BD04003A40FFFFFEFF80B584B095
:4014400000AF78600023FB607A680323134011D00B4B1A6801231340FB60FB68002B03D17A6802231340F3D1FB68002B02D0044B01221A60FB68181CBD4604B080BDC04624
:4014800010023A4080B584B000AF78607B68022B02D9002000F03AFC7B68022B08D87B689B00084A9B181B681B041B0CFB6001E00023FB60FB689BB21BB2181CBD4604B021
:4014C00080BDC04680013A4080B584B000AF78600A1CBB1C1A807B68022B02D9002000F015FC274B7A689200D2588023DB00134008D0BA1CBB1C00215B5E002B00DA07339C
:40150000DB101380BB1C1A881E4B79684900CB5A9BB29BB2D31A9AB2BB1C1A80BB1C00229B5E194A5A43BB1C00215B5E002B08DD164B79688900CB58002B00DA01335B1073
:4015400008E0124B79688900CB58002B00DA01335B105B42D2180D4B79688900CB58101C191C00F0D3FD031C1A1C3B1C0E331A803B1C0E331B881BB2181CBD4604B080BDB1
:40158000C8190100F424002010270000FC24002080B500AF1A4B1A4A1268802109060A431A60184B1B68002B24DA174B1A6880235B02134003D0154B03221A7002E0134B94
:4015C00001221A70FFF72CFFFFF710FF0D4B1A6880235B03134010D00A4B0A4A11680C4A0A401A60094B1B7804221343DAB2074B1A7002E0054B00221A70BD4680BDC046DF
:4016000030003A4000003A4004003A4064100020FFFFEFFF80B500AF114B114A1268520052081A600F4B1B78002B16D00D4B1B781A1C0423134006D00B4B0B4A1268802118
:4016400049030A431A60FFF7B5FE064B1B781A1C0223134001D0FFF7D5FEBD4680BDC04630003A406410002000003A4080B582B000AF044B1B687B60024B7A681A60BD4615
:4016800002B080BD10023A400230800803D00138FDD1C046C046C0467047EFF3108072B6704780F31088704780B500AF0B4B0B4A126801218A431A60094B094A126830215B
:4016C0008A4310210A431A60054B054A126807218A4301210A431A60BD4680BD00F02E4000FF2E4080B500AF0E4B0E4A126802218A431A600C4B0C4A126807218A4302216B
:401700000A431A60084B084A126830218A4320210A431A60034B034A126801210A431A60BD4680BD00F02E4000FF2E4080B500AF044B044A1268802109060A431A60BD461F
:4017400080BDC04608010B4080B500AF034B034A1268520052081A60BD4680BD08010B4090B583B000AF00F025F9031C002B24D100F028F8031C002B1FD000F031F8031C2A
:40178000002B14D1FC1DFFF788FF031C237000F0D7F90B4B0A4A1268520052081A6000F01DFAFB1D1B78181CFFF77BFF05E0044B034A1268520052081A60BD4603B090BD4D
:4017C00004010B4080B500AF044B1B68002B01DA012300E00023181CBD4680BD04010B4080B582B000AF054B1B689B0F9B077B607B68181CBD4602B080BDC0460C020B407A
:4018000090B585B000AF78603C1C0F34FFF745FF031C23700A4B0A4A12680721101C8843011C7868032202400A431A603B1C0F331B78181CFFF735FFBD4605B090BDC0461E
:4018400000010B4090B585B000AF78603C1C0F34FFF723FF031C2370094B796807220A40D104074A1068074A02400A431A603B1C0F331B78181CFFF714FFBD4605B090BDA8
:4018800000010B40FFFFC7FF80B584B000AF78600023FB60154B154A126801210A431A60134B144A1A60144B134A1268802109020A431A607B68002B13D01023FB600DE03D
:4018C000012000F051FA00F019F8031C002B02D00023FB6005E07B68013B7B607B68002BEED1FB68181CBD4604B080BD60F02E4078002E400220000010002E4080B500AF92
:40190000034B1A6801231340181CBD4680BDC0460C002E4090B585B000AF78603C1C0F34FFF7BBFE031C2370094B796803221140074A1268032082430A431A603B1C0F33B1
:401940001B78181CFFF7ADFEBD4605B090BDC04664F02E4080B500AFFFF7A6FE044B044A1268802109060A431A60BD4680BDC04600F02E4080B584B000AF78600C4B1A68B9
:4019800001231340FB607B68002B02D0012B03D005E0FFF789FE06E0FFF7A4FE03E0002000F0B4F9C046FB68181CBD4604B080BD00F02E4080B500AF054B1A68C0231B0251
:4019C000134001D0012300E00023181CBD4680BD00010B4080B582B000AF78607B68022B02D9002000F092F9054B1A687B68DB000133DA4001231340181CBD4602B080BDED
:401A000010020B4080B584B000AF786039607B68022B02D9002000F079F97B68181CFFF7D9FF031C002B18D10D4B1B687A68D2000321081C9040021CD2431340FB603A6811
:401A400003231A407B68DB00111C99400B1CFA681343FB60024BFA681A60BD4604B080BD0C020B4080B582B000AF7860054B1A687B68DB00DA4003231340181CBD4602B078
:401A800080BDC0460C020B4080B582B000AF7860154B154A11687A680A431A607A680123134006D0C0460020FFF794FF031C002BF9D07A6880235B00134006D0C04601209A
:401AC000FFF788FF031C002BF9D07A6880235B02134006D0C0460220FFF77CFF031C002BF9D0BD4602B080BD10020B4080B584B000AF78600023FB607B68012B09D002D325
:401B0000022B0BD00EE00C4B1B681B041B0CFB600CE0094B1B681B0CFB6007E0074B1B68FB6003E0002000F0F1F8C046FB68181CBD4604B080BDC04600020B4004020B40C7
:401B400080B582B000AF0020FFF744FF031C002B03D01F4B00221A6026E00120FFF73AFF031C002B03D01A4B01221A601CE00220FFF730FF031C002B03D0154B02221A6000
:401B800012E0144B01221A60114B00221A600020FFF768FF021C104B1A6000200021FFF731FF0120FFF770FF094B1B68181CFFF79DFF031C7B60C046054B1B68181CFFF748
:401BC00095FF021C7B689A42F6D0BD4602B080BD6C100020681000207010002080B500AF0A4B1B68002B0ED0094B094A126801218A431A60074B1B680020191CFFF702FF78
:401C0000024B00221A60BD4680BDC0466810002010020B407010002080B584B000AF021C3960FB1D1A7080239B05FB60FB1D1B781F2B02D9002000F069F8FB1D1B781033A2
:401C40009B00FA68D3181B68BB60FB1D1B7810339B00FA68D3183A681A60BB68181CBD4604B080BD90B587B000AF0A1CFB1D011C1970BB1D1A70BB1D1B78032B02D900209C
:401C800000F044F8FB1D1B781F2B02D9002000F03DF8FB1D1A7803231340DB0006337B613C1C1334FFF7F9FC031C2370FB1D1B789B08DBB29B0014495B181B68FB607B698C
:401CC0000322111C99400B1CDA43FB681340FB60BB1D1A787B69111C99400B1CFA681343FB60FB1D1B789B08DBB29B00064A9B18FA681A603B1C13331B78181CFFF7D1FC5A
:401D0000BD4607B090BDC04600E400E080B582B000AF021CFB1D1A7001BEBD4602B080BD80B582B000AF786008E00C4B1B68181CFFF7AAFC7B680A4A9B187B607A68802381
:401D40001B029A42F1D8074B1B687A685343181CFFF79AFCBD4602B080BDC0466C0100200080FFFF6401002080B582B000AF021CBB1D1A80BB1D1B88044A12785343181C49
:401D8000FFF782FCBD4602B080BDC0466801002090B583B000AFFC1DFFF77FFC031C2370074B074A126804218A431A6030BFFB1D1B78181CFFF775FCBD4603B090BDC04604
:401DC00010ED00E090B583B000AFFC1DFFF765FC031C2370114B114A1268520052081A600F4B104A128892B21A600F4B0E4A126804210A431A600D4B1B683B600220FFF7B4
:401E000021FD30BF094B3A681A60FB1D1B78181CFFF747FCBD4603B090BDC04600000B400C000B4052F1FF0F10ED00E000010B4080B584B000AF021CFB1D1A700E4B1B6834
:401E4000DAB23B1C0F3340218A431A70FB1D1B789B01DAB240231340D9B23B1C0F333A1C0F3212780A431A70034B3A1C0F3212781A60BD4604B080BD0002044080B584B054
:401E800000AF021CFB1D1A700E4B1B68DAB23B1C0F3340218A431A70FB1D1B789B01DAB240231340D9B23B1C0F333A1C0F3212780A431A70034B3A1C0F3212781A60BD4669
:401EC00004B080BD0003044080B584B000AF021CFB1D1A700D4B1B68D9B23B1C0F337F220A401A70FB1D1B78DB01D9B23B1C0F333A1C0F3212780A431A70044B3A1C0F32D5
:401F000012781A60BD4604B080BDC0460003044080B582B000AF78600A1CBB1C1A80BB1C1A887B681A60BD4602B080BD80B582B000AF78600A1CBB1C1A80BB1C1A887B682E
:401F40001A60BD4602B080BD80B582B000AF021CBB1D1A80BB1D1B88181CFFF705FFBD4602B080BD80B500AF00F068F8BD4680BD80B500AF00F06CF8BD4680BD80B500AFE4
:401F800000F066F8044B181C00F024F8002000F02DF8BD4680BDC0466520000080B500AF024B181C00F004F8BD4680BD6520000080B582B000AF786000F04AF87B68181CF7
:401FC00000F008F8002000F011F800F037F8BD4602B080BD80B582B000AF7860024B7A681A67BD4602B080BD0000002090B585B000AF021CFB1D1A700623FB603C1C0B3413
:40200000FFF74BFB031C23700B4B0B4A1268C021101C8843011CFA1D1078FA68041C9440221C0A431A603B1C0B331B78181CFFF738FBBD4605B090BD0CE400E080B500AF60
:40204000024B802252011A60BD4680BD00E100E080B500AF024B802252011A60BD4680BD80E100E080B500AF0FF06CFABD4680BD002934D00123002210B488422CD30124D4
:402080002407A14204D2814202D209011B01F8E7E400A14204D2814202D249005B00F8E7884201D3401A1A434C08A04202D3001B5C0822438C08A04202D3001B9C08224336
:4020C000CC08A04202D3001BDC082243002803D01B0901D00909E3E7101C10BC7047002801D00020C04307B4024802A14018029003BDC046D90000000029F0D003B5FFF792
:40210000B9FF0EBC4243891A1847C046002941D010B4041C4C40A44601230022002900D54942002800D5404288422CD301242407A14204D2814202D209011B01F8E7E4005C
:40214000A14204D2814202D249005B00F8E7884201D3401A1A434C08A04202D3001B5C0822438C08A04202D3001B9C082243CC08A04202D3001BDC082243002803D01B09CB
:4021800001D00909E3E7101C6446002C00D5404210BC7047002806D003DB0020C043400801E08020000607B4024802A14018029003BDC046190000000029EBD003B5FFF7C5
:4021C000A7FF0EBC4243891A1847C0467047C04670B50E4B0E4D0024ED1AAD101E1CAC4204D0A300F35898470134F8E70FF0F4FB084B094D0024ED1AAD101E1CAC4204D00C
:40220000A300F35898470134F8E770BDE4190100E4190100E4190100EC19010030B50023934208D0C55C0133CC18013C2478A542F6D0281B00E0002030BD10B5002393422F
:4022400003D0CC5CC4540133F9E710BD031C8218934202D019700133FAE7704710B501F067FA10BD10B501F079FA10BD10B500F0DBF810BD10B5074904460978022000295B
:4022800007D1204601F090FA002802D1204608F0B5FF10BD82020020F7B51F4E0024307815460F46002804D00824B76075802046FEBD002F00D1012401F050FA00980028DD
:4022C00005D0172D03D301204002854201D90124EBE7002CE9D12946384600F023F80400E3D1706800F01CF80400DED1706800F015F80400D9D101F039FA0400D5D10098E6
:4023000006F038FB0400D0D106F04AFB0400CCD101203070C9E70000700100200020704700207047F8B50D4607460026FFF736FEFFF71EFE00F02EFA040065D100F0B8FB9F
:40234000040061D13449084600F0D4FD0404240C5AD1A80705D0A807800F0421081A401985B2172D02D968002E3886B22B48301881B2384601F0C0F8040045D1284F03468B
:402380000246002825D127495E008E5B294610318E4207D99000C01941800221521C4170D2B215E08E420BD10020787690001D49C0194680891FC95C891C4170012012E036
:4023C000052A06D1164806461436418302207071012014495E008E5B9100C9194E80114EB61FF65C4E705B1C521CDBB2D2B2062BC7D30B4800F06CF8002C05D100F084F8FC
:4024000007490120891E087000F0D6F9002C01D0FF20F8BD0020F8BD3D240000940C00007E010020861A010010B503480078012801D100F0F1FE10BD7C01002070470000E3
:4024400010B5011F0878034A8000105800F0F4FF10BD00008C10002010B5044604498000085800F057FF002801D00470001D10BD8C10002038B5044692B2C9B2684600F02D
:402480006FFF024AA1000098505038BD8C10002070B50B49064600204C6805466178002908D06188B14202D32078FFF7D5FF002804D1241D6D1CEDB2082DEFD370BD00007D
:4024C000A001002010B5002801D0FFF7B9FF10BD70B50B4E0446002570606178002905D062882078121D0023FFF7C4FF6D1C241DEDB2082DF1D3024800F0F0FFB06070BDF9
:40250000A0010020002070471CB5002469460C70142001902346054A05480CF0FFFB04480068401C00D1FF2420461CBD85250000AC0100203EB5124A0146FF20002301246C
:40254000126800290DD0012914D0042908D104206946009308814B8110460CF0DAFB80B23EBD6846009304814381694610460CF0CBFBF4E768460093048143816946EBE781
:40258000AC01002070B54589046841680089030000F026F806240408081D2124002005F0BFF91BE0022908D0C8B22A4621460AF0A1FE2046FFF786FF10E002202A4621468D
:4025C0000AF098FE2946204600F018F806E000200CF098F802E020460CF026FC002070BD30B47446641E2578641CAB4200D21D46635D5B00E31830BC18470000014B002203
:40260000DB681847B001002070B5448905680089022803D0032809D0FF2070BD2246094C0023A46829460120A04708E0FFF71AFE241DA2B200232946022006F07EF80020C4
:4026400070BD0000B001002070470000024800214160018041807047B001002070B50C46002186B016460391012802D0022859D116E003A9012006F0B8F801281BD1039DA4
:40268000324621462846FFF7D8FD0095287801900220694608814E816846FFF7B5FF41E0214D002B686809D0049004A9022006F09CF801281DD0022006B070BD002812D046
:4026C000298840182146FFF7B8FD28880024801980B228806988091D884206D12C801348FFF792FF03E00320E6E788421AD96C6018E004986860E278A378110219430B4A41
:40270000698000231060E3565360032313815181A1788170E178C1706178417021780170042028800020C7E7B0010020AC1000203EB515460C46022803D004280CD0002071
:402740003EBD0091019002206946088107484A8100680CF0DEFA07E00AF0CCFD044B0022DB6829462046984701203EBDAC010020B0010020014AD16090607047B0010020CC
:40278000034801688068081A0A21484300097047B810002010B5FFF7F1FB542204490548FFF74BFD03490120C870002010BD0000961A01000813002010B5FFF7D3FB10BD34
:4027C00070B5134C2368002B08D0207B1149C20705D04008400020738868A08070BD88680B4AA18880B29268814203D90A4D691A091802E0814202D2411A5118A160A0804A
:40280000A0689842EAD300F015F80CF09FFA70BDB8100020C0102E40FFFF000010B508461946FFF7A7FF10BD704710B5FFF780FF10BD000003480021016041608160C1600D
:4028400070470000B810002010B502000DD0FFF7F1FF074C0321207B0843207310010A21FFF74AFC2060002010BDFF2010BD0000B810002000B504480A21806848430209DC
:40288000FFF7D8FF104600BDB81000200248007B8007C00F70470000B810002070B558490868002802DA574B01221A70022290430860554800695249C00B4031096A084214
:4028C0006CD0012000F0C2FA4F4850497C30FFF72DFB4B480E216C30FFF728FB4A4820218430FFF723FB484814219C30FFF71EFB4548FF21C131A430FFF718FB4248FF21FD
:402900002F31B030FFF712FB3F484149BC30FFF70DFB3D483F49AC30FFF708FB3D493A48491CB430FFF702FB37483B49B830FFF7FDFA35483949CC30FFF7F8FA324838497D
:402940000830FFF7F3FA30483649A830FFF7EEFA2D4835498830FFF7E9FA2B4833498C30FFF7E4FA28481921C9029030FFF7DEFA2F4D287E697E0C020443A87FE97F2D4A25
:40298000090201432C48914201D1072C08D035229201914208D1042C05D005E0FF2070BD0146042400E0014617486C30FFF7BEFA154821467430FFF7B9FAA87EE97E0902F0
:4029C000014301204003814201D0002900D11B490D487830FFF7AAFA2A7F687F010218481143814204D01748814201D0052901D113490A3904488030FFF798FA002070BD65
:402A000000F02E40C001002000002E4055650000320300002F3F00003102000010520000EC160000FA12000031D000003AE30000C0F0FF0F580B0000580D00000220000023
:402A40000F0F00000505000070B50646581C80B245086D00002408E0304600F07FF81055000A1119A41C4870A4B2AC42F4D3D80705D0D0182038D15CC47FD454C17770BD67
:402A800030B50A4C002100195B1E07E0541864782502545C2C430480891C89B29942F5DB994201D1515C018030BD000000102E4010B5FF2000F0CAF90F49FF2048700E4842
:402AC0001021801D41800121417001700A490020C91C4870FFF7E2FE04000AD100F0DEF807210648FFF714FA044807211830FFF70FFA204610BD0000C0010020CC112E40E4
:402B000030B504465B1C1804450C002308E0204600F024F8241D59005B1CA4B250529BB2AB42F4D330BD000070B500210A4D5B1E0AE0541864782602545C34434619348064
:402B4000001D891C80B289B29942F2DB994202D1515C4019018070BD00102E40014940180088704700102E40014A80180180704700102E4010B50B490020487000F08EF83F
:402B8000002000F089F9002000F076F907210648FFF7BEF9044807211830FFF7B9F9002010BD0000C3010020CC112E4010B506480078012803D102210448FFF7B7F9024979
:402BC0000020C91E087010BDC301002070F02E4010B50B46062812D006DC01280CD0032801D1FFF7C7FF10BD0A28FCD00B28FAD105480078107010BDFFF75AFF10BD1146C3
:402C0000184600F065F910BDC6010020F8B5204DAC6A0127A0071F4E002816DA307806280ED1286A384328621B480069F903084381B219481030FFF779F9042000F006F902
:402C4000134802212830FFF763F9E00711D0062000F0FCF80F49FF20C91E48707078002802D1686B38436863094801212830FFF74FF9E0050BD53078042802D1052000F0BE
:402C8000E5F80348FF2101312830FFF741F9F8BD40F02E40C301002000002E4010B503212348FFF743F90120FFF74EF920483038406A204C80076178800F890001431C4883
:402CC0000C38FFF733F96078002808D0401E022181401820FFF770FAC000083800E0B82081B21548FFF722F91348032109021438FFF71CF910481149B830FFF717F945217C
:402D000089010F48FFF712F90D480321001FFFF70DF90C490C48FFF709F90B480B496038FFF704F9084801218838FFF7FFF810BD70F02E40C6010020D8102E40908900003A
:402D4000041E2E40FF0F000058122E4020900000044800684007400F022801D0002070470120704700010B4000B5FFF7F1FF002805D009480168C908C900016000BD074894
:402D8000016A490849000162054801690122D2039143016100BD000000010B4040F02E4000002E400849087806280BD148780749002803D1486B400840004863C86A01228F
:402DC0001043C86270470000C301002040F02E400148007870470000C301002002484078022800D001207047C001002000B50300FFF7F6FB080D050D0B070507090D0120F1
:402E000000BD032000BD042000BD022000BDFF2000BD0000074A9168D26889B2064B92B2994204D105498A4201D1012100E000210170704780002E4033D000003FE300000B
:402E40000149487070470000C301002010B50446FFF78EF8072C01D9FF2C01D102480470FFF780F810BD0000C30100200149487070470000C001002010B5064A012805D096
:402E80001921C9021046FFF751F810BD1D21C902F8E7000090002E4010B50A4A141D012808D009491046FFF741F808492046FFF73DF810BD04491046891CFFF737F803493B
:402EC000491DF3E788002E4031D000003AE300000078074AFF2803D04C2804D9553803E01078087070474F380870107070470000C201002010B50F4A002313600E4A1360AB
:402F00000E4B18600E4801600E49012008600E490860000290600E490C4808600D4914300860FF381538506000F0BCF800F0CAF9002010BDE4010020CC010020F8010020E0
:402F4000FC010020E8010020D8010020C8110020DC010020F0010020014610B50020002910D0094B1A689C685118A14209D25868196080188A0704D08A07920F891A091DC4
:402F8000196010BD002010BDCC010020F8B50024164E671E321F3D463168136806E01422624310328A58521C1BD0641C9C42F6D36A1C14D02C461422544322460C328850C3
:402FC0000C214843FFF7C8FF3168002808510AD031680020103408517068401C70602846F8BD2546E4E73846F8BD0000DC010020F3B50026F64381B000281BDB1E49096857
:40300000884217D80299002914D01B4F142204463F1D54432546396810354859401C09D0FEF7A6FF38682F1F4159C359994203DBFEF798FF3046FEBD2146083100914658A8
:4030400001590C20704308180C220299FFF7F5F80948761C001D0068C159B14200D100260549009A091D865008684159491C4151FEF778FF0020FEBDD8010020002803DBB4
:4030800007490968884202D90020C043704704491422091D096850431030085870470000D8010020F0B500200D4A451E0346171F50600FE014260146714314680E1DA35166
:4030C0000C461668083433511668083435511468401C635039688842ECD30020F0BD0000DC010020F3B50026F64381B0002841DB2349096888423DD8029900293AD0204F0C
:40310000142204463F1D54432546396810354859401C2FD0FEF72CFF3868415900292BD0211D009146580C21005971430F46C1190C220298FFF781F811480021001D006845
:40314000761C00590C34C0190160416081600C48001D00680159B14200D100260849009A091D865008684159491E4151FEF7FAFE0020FEBD3046FEBDFEF7F4FEFAE70000A0
:40318000D8010020FEB504460D4600201E49089E0860471E009001900290002C11D0486885420ED2002A0CD0002E0AD0642E08D808460C3001681C2068430C18207A002875
:4031C00001D03846FEBD0120226020721846FFF7DDFE6060401C13D06681A6810A4827610C3067610179A94200D205710021684601810A462846029B00F040F82846FEBDCC
:4032000000202072DDE70000E401002038B50124009400F039F838BDFEB50027164EFF433D4600240EE01C20316860430818017A002906D04068FFF721FF002801D025460E
:4032400003E0641C3079A042EDDA681C12D01C2130684D434419FEF78BFE69466068FFF741FF0546FEF77EFE002DD9D1216868468847D5E7FEBD0000F001002038B5002414
:40328000009400F001F838BD1FB500220C49541E0A60002811DB496888420ED808491C220C31096850430818406801A9FFF7A0FE401C02D0002004B010BD2046FBE7000013
:4032C000E4010020F0B50021114A4D1E174611710C3F0B46BD6016E008461C2460431668041D355114680646235014680836A3551468361DA353044616680A3433531830D3
:403300001468491C255078688142E5D30020F0BDF001002038B500210091002811DB0F49097888420DDA0D4D04010C3529680859002807D0201D0818694600F05FF90028B4
:4033400001D0002038BDFEF713FE28680F34015D491E0155FEF706FE009838BD00020020F7B582B00025ED43029800240E460560002A49D0002E47D02D48D21C02402D487F
:40338000174601780C30006805E022018258002A0FD0641CE4B28C42F7D3691C3ED02C01211D40180191314600F016F900282BD101E02546F1E71F480C30016820460C30A6
:4033C0000F521C480C30016820460E300E5419480C30016820460F300E543846704300F0ADF814490C310968002808510CD00024009011E00F480C3001680198081800992F
:4034000000F017F9002802D0012005B0F0BD0098C019641CE4B20090B442EBD30298054905600C310879401C08710020EDE70000FCFF000000020020F8B50D4600216A4682
:403440008C461180002839DB23490978884235DA214B04010C3319680A59002A2ED020460C300B5A801C0E5C184670438018954224D3854222D2002006E007465F43BF1820
:40348000AF4206D0401CC0B2B042F6D36046002814D0114E271DC8190C366A46294600F0F2F800280AD168460088012808D030682946C01900F0BDF8002803D00120F8BDBB
:4034C0000020F8BDFEF754FD30680F34015D491C0155FEF747FDF3E70002002003460020002B06D0034A5168906852884018511A198070470002002070B5002400F0DCF804
:403500000D4E002132460C3271600EE0200113680546195013680C355953AD1C13680F3059551368641C1954E4B230788442EDD31171002070BD000000020020014610B588
:40354000002000290CD0C91C064B8A08596892005C888A18A24202D898685A60401810BD002010BD00020020F8B5002827DB19490978884223DA174C05010C342168485985
:4035800000281CD028460C30085A009028460E300E5C401C0E5420682F1DC01900F064F800280CD12068002445590EE0094829460C300068C01900F03CF8002801D00120D6
:4035C000F8BD00982D18641CE4B2B442EED30020F8BD00000002002030B50D4604000BD0A800FFF7ABFF6060002805D000202570C0436080002030BD012030BD70B50D462E
:40360000040005D0002D03D00220205E002801DA012070BDFEF7ACFC0221615E60688900405828606088401E6080FEF79BFC002070BD70B50D46040007D0002D05D0022159
:403640002078615E401E814201DB012070BDFEF78FFC6088401C00B26080616880000D50FEF780FC002070BD10B5040009D0227800216068FEF7EAFD0020C04360800020CA
:4036800010BD012010BDF0B500231D46002802D00224045F0AE00120F0BD46689F00F6598E4201D1012503E05B1CDBB29C42F4DA15700020F0BD0000054B11221A70054A44
:4036C0001180064A0449116005490860704700000002002002020020F81100200C020020080200200148007870470000140200207CB505460024FEF7B5FDA87969460870BA
:4037000000A8062229460130FEF797FD0021684604F064FB0C2804D0072804D01F2804D004E0022402E0042400E0272420467CBD10B502280BD0032802D0042809D102E0BB
:4037400000F0D4F805E000F0A3F9FF2801D100F0B3F9FFF73DFBFFF749FB10BD10B500F0DBF9FFF735FBFFF741FB10BD10B503240BF0D4FF002810D10BF078FF00280CD16A
:4037800005F082F8002808D100F0A2FB002804D104F07EFD002800D10024024900200870204610BD1402002070B50025044600280ED0A07901280BD8FEF754FDA0790028F1
:4037C000204602D002F09EFF03E002F053FF00E00125284670BD10B5FFF7FAFA012801D1FFF7FCFA10BD38B504460120002C20D0617801291DD800290BD0FF25E535FEF734
:4038000031FD2846FFF7AAF9C0B22070072803D00EE0FF25CD35F2E70020694608706846FFF7F8FA69460878012801D108202070002038BD70B504460120002C1FD061780A
:40384000012902D92278092A19D8002906D0FF25E53520780726092803D003E0FF25CD35F7E72670FEF7FEFC2078082808D00020FFF712FB21782846FFF776F9002070BD97
:403880000120FFF709FB2670F4E7000070B50D46040001D0002000E00548002802D0012102F0DAF82946204602F03CFC70BD00007C13002038B5054600200446009022468D
:4038C0006946284600F09CFF0098002801D00BF007FFA878214602F0E4F9A878214602F0D3F9641CE4B2052CE9D338BDF8B5624CFFF76EFA012846D160480078002842D0A8
:4039000002F094FB0028FAD003F072FF0028F6D05B4E7078C00703D000F047FC0128EED0B07E0028E7D170780025002878D0000707D5AC20FFF712F9070B00F061F938436B
:4039400021D14F484178684603F030FE4D4F06462079B9784018C1B2B14271D802F066FB002810D0464C203402F08DF96846008802F0B9F902F062FA43490988884203D1E1
:403980000120FFF763FA74E04049012008703C48807B00282BD04034608A002827D0E07E002824D1A1200001FFF7D8F8208A4000B04218D97878002815D1A12424012046E0
:4039C000FFF7CCF80221884301462046FFF7CCF8FF24F1342046FFF7C1F80321090201432046FFF7C1F83878002800D03D7002F0BDF90120FFF724FA244C08E0FEF7C8F993
:403A0000FFF7E6F906282CD02078002829D0FFF7DFF9062825D020780128EFD021E0FFE702F004FB002824D0142002F05CF9174C0120207002F09AF90020FFF701FA09E05B
:403A400015E0FEF7A5F9FFF7C3F9062809D02078002806D0FFF7BCF9062802D020780128EFD0207801288BD1FFF77EF925700020F8BDFF20F8BD000048130020C001002020
:403A80005C1300201A0200202C0200201502002010B50848FF244078002809D102F0C6FA012805D1FFF782F80720FFF7CFF90024204610BD5C13002038B5FFF789F901284A
:403AC00001D0002038BD02F0B1FA00280AD0114C6078C00703D000F068FB012802D0A07E002801D0FF2038BD617800290FD0684603F05CFD022806D96846008802F0F3F802
:403B0000012002F039F90320FFF7A0F9D9E70020F7E700005C13002038B5FFF759F9042819D0052817D006281AD0032842D007280AD100206946087002460120FFF748F89E
:403B4000FFF746F90128FBD138BDFEF721F9FFF73FF90128F8D0FFF73BF90128F5D138BD02F028F905E0FEF713F9FFF731F9012803D0FFF72DF90128F5D1A124240120467A
:403B8000FEF7ECFF01220E4983079B0F0A70022BE5D149880029E2D0104301462046FEF7E3FF2046FEF7DAFF410849002046FEF7DBFF38BD02F002F90120FFF747F938BD6E
:403BC0001A020020F8B50646002402F0ADFE0546304602F0C1FE00210346012632468A40174610462F401840002F03D0002801D1224394B2491CC9B20529EFD32046F8BD7E
:403C000070B500252C460A4E03E0002C01D0002000E030460079002803D02046FFF7D2FF0543641C2406240EEFD0284670BD00007C1300201CB50020694648706846FFF750
:403C4000D2FD01AA69460A20FEF7C2FF6946042008561CBD10B50C4601F076F9002809D00179002906D0C1788078224602F008FB002010BD022010BD01480078704700005E
:403C8000481300204030C07E002800D00120704700B500F001F800BD88214843064940186030417F491CC9B24177052901D300214177C8B2704700005C13002013B501F099
:403CC00043F904000BD001F09AFC002807D0214601AA0A310620FEF77BFF00201CBD02201CBD000010B50C4601F02EF900280AD001F085FC002806D0224604490A20FEF7D8
:403D000067FF002010BD022010BD000031130020F3B581B0074601460026029802F0FCFD0446002F01D0002500E0154D002D21D0284601F03FF9032C04D13946029802F050
:403D400015FE06463846029901F09EFF032C06D0002C10D00121384601F01AFA03E03146384602F0B7FF284601F05CFE0221284601F072FEFEBD3846029901F085FFFEBD58
:403D80007C13002070B50446002503F0A5FB002801D00C2070BD2078611C02F06BFBFF2802D01F25284670BD02F0B8FBFF2804D02178621C01F0DAFEF4E70725F2E710B571
:403DC00003F08AFB002801D00C2010BD02F02AFB002010BD70B50D46044610210BF0C0FB1021601806460BF0BBFB334610221946204603F09DFB102130460BF0B1FB02209B
:403E00002870204604F09CF970BD70B504464078217802028006850FE0781143A67809050002090D0643084601F08EF8002812D0022D10D0032D0ED0002E08D00179092919
:403E400009D0002907D0214600F0A1F870BD0089002104F0AAF820460BF042FC70BD0020704770B50446002503F036FB002801D00C2070BD2078611C02F0FCFAFF2802D069
:403E800002F03EFA00E01F25284670BD10B504F0FFF900F0F6F8002010BD10B5044600786178E2780843A17811430843217908436179084305D003F001FB002803D00C20EB
:403EC00010BD122010BD204602F01CFC002010BD10B5044803F01CFC02F01CFA00F004F8002010BD18130020F8B5114D00266E706E736E716E76AE76EE766E75AE70EE70B7
:403F0000AE712F46EE730120B03778723F2078719B20B87100F00AFA0024204601F036FB641C2406240EF8D03E72FE71AE73F8BD5C13002070B505460E46084602F0F4FCB2
:403F40000446304602F008FD0121A9400A46224001400A4301D0012070BD002070BD10B50446084602F0F8FC0121A140014201D0012010BD002010BD10B5FEF729FF032891
:403F800004D101F01BFF0120FEF760FF10BD70B5044600790D4609281CD000281AD020464030817E491C8176204601F03BFDA078FFF76EFE064602462946204600F00CF8DE
:403FC000002806D1A0783146FFF760FC28460BF087FB70BD0846FAE7F7B5054648780C468006870FC8788978000282B0014368468180284601F00EFB060007D021462846F3
:40400000049A00F091FB304605B0F0BD384600F039FC0746034601AA2946204600F0CAFA68468088231DC0B20090A878FF22049902F032F8684680883B46C2B2A8780499C7
:4040400002F0DCFBDFE770B5002500242846FFF7B9FD060010D03046E040C007C00F07D02146284601F003FE21462846FFF750FE641CE4B2052CEED36D1C2D062D0EE4D0AD
:4040800070BD10B502F046F9FFF72EFF0BF090FB002010BDF8B5002400F081F80123012800D10124104F00203E4620360425082203E0002801D0002100E03146097900291F
:4040C00007D001290BD002290BD0114681402143CCB2401C0006000EEBD07C70F8BD1C43F7E72C43F5E700005C13002010B5FFF7D1FF10BD10B50B4681791943817103D078
:404100008078114602F03EFB10BD10B582798A43827102D1807802F04DFB10BD70B5FF25D53502242846FEF719FD0C4A9178002901D0022906D1137852789A18282A01D966
:40414000032402E0032900D101244105490DE00201432846FEF708FD70BD00001602002010B500F022F8002807D0012805D0032801D0042801D0002010BD012010BD01469E
:4041800010B50020C90701D000F009F810BD014610B50020C90701D000F001F810BD10B52020FEF7DBFC000A10BD10B51820FEF7D5FC410501D5042010BD4007800F10BD1D
:4041C00038B5044640060CD5684601F007FE0220FFF78CFF072002F0B9F96846007801F03FF9200613D5FFF7E0FF01280FD1684601F0F4FD6846007800F09AFA072002F0C1
:40420000A5F9012001F076FC0220FFF76FFF38BD10B5034A0178117002F0A7F9002010BD1602002010B50446FFF7B9FF002801D00C2010BDA27B01211848002A827801D0DB
:404240000A4301E05208520082706279012A0FD0C17849084900C170207901280CD06188208802F0A5FF2080207904280BD00DE0C2780A43C270EFE7E01D02F02BFA0848A4
:40428000808C208002E0E01D02F024FA054920798870204602F078F9002010BD5C130020081300201602002038B50478FFF777FF844201D10C2038BD002C18D00720694654
:4042C0000870FFF74DFF012807D10121684600F08DF8012801D0092038BD6846007802F035F9FFF71BFF02F07FF9012010E0FFF737FF012806D1684601F070FD6846007877
:4043000000F04AFA072002F021F902F061F90220FFF7ECFE002038BD10B5034A0178517002F008FA002010BD1602002038B568460BF06CF9002801D01F2038BD012100986C
:40434000C90201804180002505714571857107214173857302F018F9009C202200212046FDF774FF25702A460021601CFDF76EFF204602F0FAF8204602F0DCF900980BF039
:40438000AFF9042200210248FDF760FF002038BD160200200346084800B5834209D8184600F0D2FD002804D00089984201D1012000BD002000BD0000FF0E0000074A9179BF
:4043C000491C8906890E917138220A4092014907090E114308430249084070475C130020FF0E0000C006C00E70470000F8B507460E4600240D4803E0002C01D0002500E016
:4044000005462979002905D0641C2406240EF3D00020F8BD204601F0B9F82E712046FFF7CDFF28813C700120F8BD00007C13002010B503F0B1F80222002100F003F801F0F2
:4044400011FF10BD10B5094B40074907000F090F185A595A40185043C0086421FDF74CFE002800D1012080B210BD0000EA1A0100F7B53D20405C88B016460C46002829D023
:4044800030786946087200252046FFF7FBFB012800D00125204603A938300191009023460327A17E34332A46206A03F04BF902A8089900900B46019120463A4603A924300B
:4044C00003F018F802466846007A3070204601F049F810460BB0F0BDFFB587B00C4605461078694608723D20005D1746002826D000262046FFF7C6FB012800D0012620461C
:4045000003A93830019100902346A17E34333246206A03F017F902A80090291D019120462B1D03A924300A9A02F0E4FF02006846007A388002D1204601F014F810460BB0EF
:40454000F0BDF7B53C20405C88B015460C4600280CD0287869460872002806D000262046FFF790FB012803D003E01F200BB0F0BD0126204603A93830019100902346032751
:40458000E17E34333246E06903F0DCF802A8089900900B46019120463A4603A9243002F0DBFF02466846007A2870204600F0E4FF1046DBE7FFB505463C20405C87B016465A
:4045C0000C46002810D0084601F024F801280BD0308869460883002809D000272046FFF751FB012805D005E000200BB0F0BD0220FBE70127204602A93830019100902346A5
:40460000E17E34333A46E06903F09CF806A80090291D019120462B1D02A924300A9A02F09BFF02466846008B30806846008BA870000AE870204600F09FFF1046D5E770B562
:404640000D460446FFF71EFB01280AD0E87AA97A00020143A07801F0C3FC012808D0002070BD00222421204602F0ECFC242070BD28214C200155204600F09AFB282070BD27
:40468000002801D0002000E003484030C07F012800D00020704700007C1300200146002049070ED50021084B03E0002901D0002200E01A461279022A04D0491C0906090E25
:4046C000F3D07047012070477C1300200146002049070ED50021084B03E0002901D0002200E01A461279022A04D0491C0906090EF3D07047012070477C13002010B5044646
:4047000080346068002803D00AF0FEFF0020606010BD4030417070474030817070474030017070470171704792001018C166704770B53C2501F0F8F8040004D0204600214F
:40474000433001F0EDFB2946204600F0C0FB002C02D0A07801F07AF870BD000010B5002801D0002000E00348002802D0008903F063FC10BD7C13002010B5002801D000208F
:4047800000E00448002804D00179072901D100F041F810BD7C13002010B501F0C5F8002802D0807801F052F810BD00207047000070B50546008A00281ED010491122897ACD
:4047C0001140C90618D5294640314A8A098A521C4A4392B2D10800D10121540801E0621A94B2A042FBD9FEF77DFF012804D1298AA878224601F0E4FC70BD000008130020C2
:4048000000230B60052A04D292001018C26E0A60C366704738B5044600200090A079002814D14020015D052901D00E290ED168460AF0FCFE002809D12046009902F0EAFB57
:4048400003481021C28A2046FFF754FC38BD00000813002010B50B4604460146184602F0B9F8002802D020460AF044FF10BD13B5044601AA11460620FEF7AAF968468188F9
:4048800061811CBD002800D10220704770470000F8B504462346401D543300909A1EA078911E01F0AAFA25464035A88A298A8000FDF722FC401E81B2688A884203D9698261
:4048C000A07801F0EAFF20460021433001F028FB8020FEF743F9E88102F05EFEE989891C8AB26179FFF7AEFD01F0BCFC02F054FE2A8A6179FFF7A6FD074601F0A5FC688A7D
:4049000000280BD0FF26F1363046FEF727F90321090201433046FEF727F902E0002001F0AAFFFF206130FEF719F96E8A002E0BD070431049FDF740FC0004000C01D0401CD2
:4049400080B20D49488002E00B4800214180288A704381B2A07801F0FBFE2837B9B2204602F02AFCE98AA07801F04AFEA07801F0AEF9F8BD710200001A0200207FB5044698
:404980008034616805460E46183108226846FDF754FC31462031082202A8FDF74EFC102168460AF0DDFD6068102108300AF0D8FD60682B46083024331022694602F0B8FD99
:4049C0007FBD10B504460821FFF79FFB10212046FFF79BFB207905281FD006281DD008281AD12189002003F09FFA072020712046FFF748F9014620464030012913D00E21A1
:404A0000017000210176204600F02CFF2046FFF775FE2046FFF7CCFE10BD20890122002103F066FAE1E70521EAE70000FFB581B01F4604460821FFF768FB10212046FFF788
:404A400064FB2079082803D0092804D0042203E00422012501E009220025204600F0C6FD264600204036307022712046FFF746FE0398002D02D0012808D00BE001280AD138
:404A800020890022029903F033FA04E02189029803F04AFA012700203076012F04D0204600F0E0FE05B0F0BD02983073204602F0F5FA054605480121C28A2046FFF71AFB8E
:404AC000002DEFD109202071ECE700000813002070B50C460546FFF7D5F8012809D108212846FFF712FB0023012221462846FFF79DFF70BD10B5044600F078FD2046FFF735
:404B0000FDFD00214034217010BD70B505461A24FFF7B8F8012809D108212846FFF7F5FA0023012221462846FFF780FF70BD0000F8B50446002000900E4668460AF076FDE2
:404B4000002801D00D20F8BD8420005908212030009D00F0F4F920460421383000F0EFF9002E02D1204600F07FFD2946204602F0E1F90E480821C28A2046FFF7BBFA2046E9
:404B800000F0D7FE25464035002808D0204600F023F8002801D0092028700020F8BD08202870204600F03EFFF7E7000008130020014610B540310A460978082906D009295D
:404BC00007D00A2901D100F091F810BD0B20107010BD00F001F810BD70B50446007925464035052805D0062803D008280FD00C2070BD03220621204602F024FA0D480821F2
:404C0000C28A2046FFF776FA1120287010E006202873204602F042FA0646AA8A0A20424301212046FFF766FA002E01D109202071002070BD0813002038B504460020009018
:404C400068460AF0F3FC002801D00D2038BD2046009D00F08BF908202071204600F004FD2946204602F098F900213D2001550F2040210855204600F0D5FE002038BD00B5EF
:404C8000024600F0B3FC10214032117000BD10B50446FEF7F7FF012809D04020005D112805D100231A4606212046FFF7BFFE10BD10B5FFF786FE10BD38B5044600216846C2
:404CC00000910AF0B3FC00280CD12046009902F0DAF905480821C28A2046FFF70BFA0D204034207038BD00000813002038B504460021684600910AF099FC002801D00D20E1
:404D000038BD2046009902F0B3F905480821C28A2046FFF7EFF90C2040342070002038BD0813002000787047F8B50025002801D0002400E01A4C002C28D0204600F05FFC22
:404D4000002823D0207903281CD005281CD026464036B18AA07801F009FDB078012815D10021204601F053FE274680373868002802D00AF0C9FC3D600020B0702079072801
:404D800005D007E0042000E006202071F8BD2046FFF70EFD0221204600F05EFEF8BD00007C13002010B54C22115400F046F810BD10B50446FF21FFF7A8F909202071A078FC
:404DC00001F004FD10BD000038B5FF216A461180002801D0002400E0064C002C08D011460620FDF7F5FE684601882046FFF73FFD38BD00007C13002010B50446807900284C
:404E000009D022214C200155FF212046FFF77DF9204600F012F810BD10B5037902464032002B03D01173092B02D003E0002100E02221117300F001F810BDFEB5044600890B
:404E4000002701902781207926464036002817D0012815D002280AD112E002AA6946204601F0A6FD002807D100980AF043FC204601F0C6FD0028F0D02046FEF71BFDB7767B
:404E8000254680352868002802D00AF03DFC2F606868002802D00AF037FC6F60317B002902D0019800F044F8A078002100F028FF2046FFF7BDFAA07801F07CF8A07800F06C
:404EC000C5FC0B20FFF712F900F004FCFEBD70B50E46054602F05CFB044606702846FEF7D1FE014601204140204661700C3001F000F8002D10D02889608028464030C17821
:404F00002171002E10D169796171018AE180418A2181808A608107E01820FDF71FFEC005C00F207100206080204602F0A6FF70BD0A4610B50146002003F096F810BD10B5CA
:404F40000AF0EAF810BD000000B50146FFF74AFA002801D0002000E00348002802D002898A4200D0002000BD7C13002038B5044680346068002806D168460AF067FB00287D
:404F800001D100986060606838BD000010B5014600F040FB0128887802D0FEF77DFE10BD88214843024940186030007F10BD00005C13002070B5054604464035A87F0128DA
:404FC00011D1A1788820084A484380186030067F3046FEF7AFFF002805D10220A877A078314601F0ADF870BD5C13002010B50E4CE079002816D0FFF726F80C48827FC17F1C
:40500000808B00F06FFB01280CD10020E07100F0EEFE0446AC20FDF7A1FD010B02D0204600F00EFA10BD00000C1400205C13002070477047490510B5490F0B00FDF7D0FA96
:40504000060704080C0C0F073E21FFF7ABFE10BD0821FFF7E1FE10BDFFF7EFFE10BDFFF7CBFE10BDF8B507460025002D01D0002600E0204E00F070FE304640304489002154
:40508000418100F08FFE304600F0B9FA01282BD1A00702D52846FFF747FEE00602D52846FFF792FEA00601D5FEF7CDFF600601D500F0CCFA200602D5284600F01DF8600795
:4050C00002D5284600F0FEF9380402D52846FFF753FB780402D52846FFF740FBE00703D021463046FFF7A6FF6D1C2D062D0EBCD0F8BD00007C130020F8B5002801D00024EA
:4051000000E0204C002C39D025464035A878012834D1E98AA07801F073FA2046FEF7B2FD01282BD002F038FA2A8A6179FFF78AF9064601F089F82836B1B2204602F03CF873
:40514000E98AA07801F05CFAFF206130FDF706FD6E8A0D4F0146002E11D0304648430B49FDF72AF80004000C01D0401C80B27880288A704381B2A07801F0EAFAF8BD0020E0
:40518000F5E700007C1300201A0200207102000070B50D46124A010001D0002401E014462034002C1BD0204600F034FA01280AD18820484380186030007FFEF7BBFE00280D
:4051C00001D101F0F5FE20464030817E491B8176204600F027FC2089294602F0E6FE70BD5C13002070B503460088FFF7ADFE040013D000F004FA00280FD02079092819D080
:405200002546997840352973204601F047FF0646A878012803D0AA8A02E0022070BDEA880A20424301212046FEF764FF002E01D109202071002070BD0EB5002217216B46A1
:405240000292198100905A810120029B00990AF0CDFA0EBDF8B5184E0024F079002820D10025AC20FDF77AFC000B21E0204600F073FEFDF773FC07462A46214600F032FA28
:4052800001280FD00D48012187838577C477F171002D01D0002000E02030002801D000F0C1FBF8BDAC20FDF759FC000B641CE4B20028DBD1F8BD00000C1400205C13002096
:4052C00010B50088FFF740FE002809D0014640310C460978082905D00B2903D00C2010BD022010BDFFF778FC002801D009202070002010BD70B503460088FFF725FE040090
:4053000008D0254640352878082805D00B2803D00C2070BD022070BD8420005910220830991CFCF78AFF2046FFF728FB2878082804D02046FFF7DAFC002801D00A202870BA
:40534000204600F06FFB002070BD000010B50C46002121700088FFF7F7FD03000BD000F04EF9002807D009481121807A0840C00603D4112010BD022010BD022020701A8A2C
:405380001889002102F08CFE002010BD08130020F8B50F46002100910088FFF7D5FD040012D000F02CF900280ED0E079410641D4617E02264A07002A08DB8907402500294A
:4053C0001ADA2843E07135E00220F8BD02F0E0F80021017021894180A1898180217E4170E189C1803E7005460178134802F0BEFB284602F0F9FD1DE0204600F011F90128D0
:4054000006D068460AF012F9002803D00720F8BD2A20F8BDE07900992843E071204601F067FE607E0421304360760448C28A2046FEF760FE0020F8BD1D04000008130020D5
:405440003EB500220F236C460292238100910190628169460EC900200AF0C8F93EBD000070B5054600F060FA040024D003202071254600264035EE76E6702046FFF708FA16
:4054800001F0A6F80920FEF731FEA07800F080FD0121204600F0E0FA2E706E70AE7000212046FFF714FD0649887B401C8873012001F0C0F970BD284601F088F970BD000063
:4054C0005C13002010B5002801D0002400E00A4C002C0FD020464030417802290AD1002141702046FEF7CEFB002803D10221204600F0B2FA10BD00007C13002070B5034664
:405500000D460088FFF720FD04000BD000F077F8002807D012481121807A0840C00603D4112070BD022070BD20464030418A008A491C41430804C10C5888884201D212208C
:4055400070BD20822079072802D12046FFF730F9022028702089002102F0CAFD002070BD08130020016A491C016204D1817E491C4906490E81767047C169491CC16104D131
:40558000C17E491C4906490EC176704770B500250646002801D0002400E0114C002C1CD0882200212046FCF751FEA67000202646207140363070204600F018F8204601F032
:4055C0001BFA084820820848B577807A1121084000D001202075012070BD002070BD00007C130020B80B000008130020002101628176C161C1762030017741777047007962
:40560000002805D0012803D0022801D001207047002070474030807F002800D00120704740300078002807D0012805D0052803D00E2801D0012070470020704710B5807830
:4056400001F08AF9002800D0012010BD10B500F0CEFB0446AC20FDF781FA010B02D02046FFF7EEFE10BD000070B5054604464035A87F002823D1FF206075A0788821144A55
:40568000484380186030417F8823491CC9B24177A078584380186030052901D300214177A0788821484380186030467F0677A1783046FEF73FFC002802D00120A87770BDA2
:4056C0000220A877A078314600F03AFD70BD00005C1300200020401C0006000EFBD0002070470000F0B515468207920F85B0C004C00E02926A469080002D01D0002400E07E
:40570000514C002C29D0084600F026FC03906846808800280BD00298012845D0022843D003280CD03D20005D012872D086E00398FDF714FA01462046FFF799F87EE0002005
:40574000029002A809F052FF002807D03D20005D012876D12046FFF705FF72E06846029E8388324600210398FDF76EF90398FDF7F5F901462046FFF77AF8284600F0B9FA3D
:4057800001AA21463046FEF773FE002806D0304609F09CFF3D204C21085528E0F5773146204601F077FA4CE0002000902789684609F00CFF002802D0002005B0F0BD6846B1
:4057C000009E8388321D00210398FDF73DF90398FDF7C4F901462046FFF749F8284600F088FA25464035287E00280CD103E02046FFF7DEFA25E001AA21463046029BFEF7FA
:405800006BFE002806D0304609F056FF3D202873EDE710E00298FFF739F8390A000101433770717068468088B070000AF0703046FFF702FD05E02046FFF794FE284600F0D4
:4058400058FA0120B9E700007C13002010B5044A917B002901D0491E9173FFF797FE10BD5C130020F8B5074606464037B87F00283DD0B0788821009048431F49451860358C
:40588000287F0099FEF76BFB012831D0287F401CC4B2052C00D300240020B877FF276F772F77A87702460146009800F0C9FD717DFF2903D0304601F060F8777501F078FB8D
:4058C00000252F462246694630460097FEF798FF0099002902D03046FEF759FB641CE4B2052C00D300246D1CEDB2052DEAD3F8BD0320B877F8BD00005C13002010B502465E
:405900000021084B03E0002901D0002000E018460479944204D0491C0906090EF3D0002010BD00007C13002000B50120FFF7E6FF00BD10B5044601F02BFE21890180803431
:405940006168416061682831816002F007FB10BDF7B50646087982B00C46092807D0A078F0770846FFF756FE012806D010E0304609F0C0FE022005B0F0BDA1788820284A0A
:40598000484380186030007FFEF7D4FA012810D0A078FEF775FE01280BD037780121304601F0B3FA25462035062F36D00B2F0FD107E06846027C21463046FEF74BFF0D200F
:4059C000D9E72046FEF75EF9012801D1002028772046FFF7DBFA054604AA21463046FEF7B0FD01205F2108556946087C0090A07833463A46294600F04FFB69460A7CA0780A
:405A00000323294600F0FAFEA0782946FDF73EFF304609F06FFE0020ADE70120D7E700005C13002010B502464032937F0021002B03D1927E002A00D00121064AD279002A91
:405A400000D000210279092A00D10121807800F0FFFE10BD0C14002070B50C460646FEF711F9002814D1012C0ED935464035A87800280DD1687802280AD03079092807D014
:405A80003046FFF7DBFD0446204600F00EFE70BD0124F9E770B50D4601280BD0082808D1A8241146B020FDF75FF829462046FDF75BF870BD2020FAE710B501460820FDF76F
:405AC00053F810BD10B50446FF20F130012C01D1FF20D530002200F006FF1020FDF73EF80349A043088001461020FDF73DF810BD1E02002010B504461020FDF72FF80449A0
:405B0000A043088001461020FDF72EF810BD00001E02002010B50446012802D0082C07D102E0FF20D53001E0FF20F13000F0D0FE1020FDF713F80449204308800146102083
:405B4000FDF712F810BD00001E02002010B504461020FDF703F804492043088001461020FDF702F810BD00001E020020F8B507460120B84085B214460E46012229467C201C
:405B800000F0B1FE32462946782000F0ACFE6078217800020143E078A5780002054360792679000206430C2047430D2080013C182046FCF7D9FF241D29462046FCF7D4FF2F
:405BC000201D3146FCF7D0FFF8BD401880B270478B00034310B5D10191201943C000FCF7C3FF10BD70B505460C46407829780002014341200001FCF7B7FFE878A978000293
:405C000001430A48FCF7B0FF60782178000201438320C000FCF7A8FFE078A1780002014302480830FCF7A0FF70BD00001404000070B50D46044681B201208002FCF794FF4A
:405C4000210C0448FCF790FF81202946C000FCF78BFF70BD0404000070B5054600242846FCF77CFF641CA4B2102CF8D370BD10B50C460146B020FCF777FFFF2021462D30B3
:405C8000FCF772FF10BD704710B50C460146B020FCF76AFF204600F051FE0021FCF764FF10BD70B50C46054600F005F821462846FFF7DDFF70BD10B50C460146B020FCF7E5
:405CC00053FFFF2021462930FCF74EFF10BD10B50146B020FCF748FFFF20002220211D3000F001FE10BD10B50146C020FCF73CFF10BD010210B54D310020FCF735FF10BD84
:405D000010B504020029014608D0B020FCF72CFF214675310020FCF727FF10BDB020FCF723FF512000214001FCF71EFF00210348FCF71AFF21467631ECE70000240A000000
:405D400010B554210020FCF70FFF10BD10B553210020FCF709FF10BD10B5034908884880FFF7C8FE10BD00001E02002010B550210020FCF7F9FE10BD10B50E2400280CD0A0
:405D8000C420FCF7EBFE20430146C420FCF7ECFE51210020FCF7E8FE10BDC420FCF7DEFEA043F1E710B502484088FFF7CFFE10BD1E02002010B5FCF7F5FF10BD10B55221BA
:405DC0000020FCF7D1FE10BD884201D8081A03E00022D243101A401880B2704710B504461820FCF7BBFE8004400F207010BD10B5B020FCF7B3FEC0B210BDF8B50E460146C7
:405E00001C461546B020FCF7AFFEFF20E930FCF7A5FE0746FF200130FCF7A0FE3080FF200930FCF79BFE2880FF200530FCF796FE208079070698490F0170F8BD10B5C82039
:405E4000FCF78CFE10BD10B50C46002812D05820FCF784FE2070000A60705C20FCF77EFEA070000AE0706020FCF778FE2071000A607110BDFF20C130FCF770FE2070000ADE
:405E80006070FF20C530FCF769FEA070000AE070FF20C930E8E7000000B5024A00F004F800BD0000FF7F000000B51346FFF78CFF984201D8022800D2002000BD10B5014604
:405EC000B020FCF751FE0248FCF748FE10BD0000080A000010B52420FCF740FE10BD10B50146B020FCF740FEFF202130FCF736FE10BD70B504466820FCF730FE06466C20C6
:405F0000FCF72CFE05467020FCF728FE2670310A6170A570290AE1702071000A607170BD10B50446012905D01820FCF717FEC00B207010BD4820FCF711FE8007C00FF7E768
:405F400010B50146B020FCF70FFE0248FCF706FE10BD0000280A00000120C0027047000010B50146B020FCF7FFFD0248FCF7F6FD10BD00000C0A000010B50C460146B0205F
:405F8000FCF7F2FD0321A0014902401810BD00008821074B414310B5C918FF2260314A770A7700228A77114600F04AFA10BD00005C13002088225043074A10B58018FF219C
:405FC000603041770177002181770448418EFF201D3000F07DFC10BD5C1300200813002010B50C460146B020FCF7BEFDFF202530FCF7B4FD0222214600F002F810BD00000B
:4060000010B50023884201D8081A03E00024E443201A4018044980B2884201D8824200D90123184610BD0000FF7F000010B5C420FCF794FD0006C00F10BD000010B5034888
:40604000FCF78CFDC007C00F10BD00002C0A0000F8B503465078167800020643D07895780002054350791779000288240743002900D098241946B020FCF776FD314620465D
:40608000FCF772FD201D2946FCF76EFD204608303946FCF769FDF8BDFFB581B014460D4606460A9FFFF768FF3B460021049AFCF73BFD02484019845505B0F0BD22020020D8
:4060C00070B506460D4611242520A40108214001FCF74AFD2B46324600212046FCF724FD70BD70B5212405466401FFF72FFE10232A4600212046FCF717FD70BD10B50446BE
:4061000040782178000201438F20C000FCF72CFDE078A178000201430148FCF725FD10BD7C04000010B50C460146B020FCF71CFD802021460143FF202930FCF715FD10BD0C
:4061400070B50D460146B020FCF70EFDFF241D342046FCF703FD01090901FF202943013001432046FCF700FD70BDF8B500242646012807D0032802D0052808D105E00224E3
:406180000A2604E004240C2601E004240D26492701463F013846FCF7E7FC25204001FCF7DDFCC5B228462042F7D0252031464001FCF7DAFC00213846FCF7D6FC2846F8BD3D
:4061C00070B50D46044601461646B020FCF7CCFC512029464001FCF7C7FC31460648FCF7C3FC032189030820FFF794FC210275310020FCF7B9FC70BD240A000070B50D469F
:4062000004460146B020FCF7AFFCFF2029461930FCF7AAFC21024B310020FCF7A5FC70BD70B5491E8CB205460146B020FCF79CFCFF2021461930FCF797FC29024C3100209B
:40624000FCF792FC70BD0000054910B5884200D908460146FF206130FCF786FC10BD0000FF0F0000054910B5884200D908460146FF206530FCF778FC10BD0000FF0F0000E4
:4062800070B588251446002900D098250146B020FCF76AFC2846FCF761FC2070000A6070281DFCF75BFCA070000AE07028460830FCF754FC2071000A607170BD10B51446CA
:4062C000024611200B4680010021FCF719FC012C01D1FFF735FD10BD10B504460920C001FCF73CFC2070000A60700448FCF736FCA070000AE070FFF723FD10BD8404000062
:406300000121814010B589B200227C2000F0EBFA10BD000070B5FF210120FFF7D3FBFF210820FFF7CFFB3020FFF7E4FB80210020FCF71AFC002211460320FCF749FC374DA1
:40634000FF20A98DD530FCF70FFC0024FF26F1362146B020FCF708FC298F3046FCF704FC2046FFF727FE641C2406240EF0D0FF20A98FF930FCF7F8FB28481030044600F099
:4063800079F9204600F0BEF900F04CF8234CB82040346188FCF7E8FBA188BC20FCF7E4FBE188C420FCF7E0FBFF20698EE130FCF7DBFBA12000210001FCF7D6FB3920FFF7D8
:4063C000C5FBFFF7C3FC93200721C000FCF7CCFBFFF7B6FCE020FFF73FFCE820FFF73CFCF020FFF739FC0020FEF722F8618A0C48FCF7BAFB0A482821001DFCF7B5FBFF21F8
:406400000131AC20FCF7B0FB832000218000FCF7ABFB5B210020FCF7A7FB70BD08130020140A000010B500217C20FCF79DFB00217820FCF799FB74210020FCF795FB10BDDA
:4064400070B50D4601461446B020FCF78DFBFF261D363046FCF782FB01090901FF20294301308143002C01D1102041403046FCF77BFB70BDF3B589B0FF2001900D208001CC
:40648000009048780D7800020543C8788E780002064348790979000201437C200791FCF75DFB06907820FCF759FB059074210020FCF75AFB18480024049026E00120A040FE
:4064C00087B20098FCF74AFB03900098FCF746FB02900098FCF742FB039A29465140029A72401143079A424011430BD10698074208D00598E040C1070998C90F814201D1F6
:40650000019405E0641C0498E4B20078A042D5D801980BB0F0BD00004813002070B5FF257C20FCF71BFB0849002401230A7805E01946A140014205D0641CE4B2A242F7D89D
:40654000284670BD2546FBE74813002010B504461820FCF703FB0721C90288436107890C01431820FCF700FB10BD10B50446E020FFF772FB20782246401CC3B20021E0202A
:40658000FCF77EFA10BD000010B5044641790079042817D040000843A17B032901D8C9000843617B4A010243A079010207201143C00201431820FCF7D7FA21881C20FCF7B1
:4065C000D3FA10BD08460149E5E700000204000010B5012000F02EF90120FFF78BFA41210020FCF7C1FA10BD10B5002000F022F90120FFF7ABFA40210020FCF7B5FA10BD65
:4066000010B50C460146B020FCF7AEFAFF2021460D30FCF7A9FA10BD70B50C4601461E461546B020FCF7A0FAE92021468000FCF79BFA75202946C000FCF796FAEB20314650
:406640008000FCF791FA6C433B20A1B20001FCF78BFA70BD70B50C4601461546B020FCF783FA21468420FCF77FFA29468020FCF77BFA70BD10B504464078217800020143FF
:40668000FF20C130FCF770FAE078A17800020143FF20C530FCF768FA6079217900020143FF20C930FCF760FA10BD70B5A124054624012046FCF752FA012D07D041084900CC
:4066C000814202D02046FCF74FFA70BD014601221143F5E710B5044640782178000201436820FCF741FAE078A178000201436C20FCF73AFA60792179000201437020FCF79A
:4067000033FA10BD10B5044640782178000201435820FCF729FAE078A178000201435C20FCF722FA60792179000201436020FCF71BFA10BD10B50446E820FFF78DFA2078AF
:406740002246401CC3B20021E820FCF799F910BD10B50C460146B020FCF706FA21460248FCF702FA10BD00001C0A000010B50C460146B020FCF7F8F9FF2021460530FCF7F1
:40678000F3F910BD70B5054688000521FBF7B4FC84B22946B020FCF7E7F921460448FCF7E3F9290272310020FCF7DEF970BD0000040A000010B504460146B020FCF7D4F9BD
:4067C000210273310020FCF7CFF910BD10B504460146B020FCF7C8F9210270310020FCF7C3F910BD10B504460146B020FCF7BCF9210271310020FCF7B7F910BDF8B50546D5
:406800001E4614460F46084600F098F800902802A1000843304304462946B020FCF7A4F921460098FCF7A0F90148C0194655F8BD2702002010B50446B820FCF78FF9800518
:40684000800DA102014389B2B820FCF78DF910BD70B50D460146B020FCF786F9FF241D342046FCF77BF940218843A90101432046FCF77AF970BD70B5A12405462401204636
:40688000FCF76CF90222002D01D0104300E0904301462046FCF768F970BD70B50D460146B020FCF761F9FF2029460930FCF75CF9A12424012046FCF751F90222002D01D090
:4068C000104300E0904301462046FCF74DF970BD70B50C460546FCF741F9204301462846FCF742F970BDF8B516460D460746FCF735F9014600202C0003D104E06408401C40
:4069000080B2E207FAD08640A9430E43B1B23846FCF72AF9F8BD0000024A1018405C8007800F70472702002010B50146B020FCF71BF9FF202D30FCF711F910BD8000FF30C5
:40694000413070470246FF20052902D201484018805C70472202002010B50146B020FCF703F9FF202930FCF7F9F810BD0A4600B501461046FFF7E6FF00BD38B50C46054656
:4069800000216846009108F051FE002804D1009928464C7000F09EFB38BD10B5044680780021FFF72DFE01212046FFF755F810BD436E002B0CD00B60014660318B78137090
:4069C000826E4266CA788A700021816608467047FF20704710B50346446E6033002C04D0846E002C04D0FF2010BD41669A7001E08166DA70002010BD002141668166704799
:406A0000406E002801D000207047FF20704770B50446C0790D46810610D5DF210840E07100F0B6FD0570218941804034218A8180618AC180A18A018101F0F2F970BD00007D
:406A400010B50446FEF7E6FD01280AD1A1788820054A484380186030007FFDF76BFA012801D000F0A5FA10BD5C13002070B50D460446FDF707F901281CD02079042801D04A
:406A8000072816D1E879AE7900020643A0783146FFF7A6FA012813D03246691C204600F035FA02212046FDF734FE01212046FEF7D3FF70BD01222421204600F0C3FA70BD67
:406AC00028214C2001552046FEF772F970BD70B50D460646FDF7B3FD002847D120213046FDF713FB3446687840346073E87820220002E081A9780843E0816879010228793F
:406B00000843218A814203D0F1791143F1712082E8790102A8790843618A814203D0F1791143F1716082687A0102287A0843A18AE180814203D0F1791143F171A082A08A54
:406B4000218A8000FBF7D8FA401E618A80B2814200D9608201213046FDF7DEFDE87AA97A000201430022304600F0DCFA70BD0000F8B50C460546FDF785F8012849D0294EFC
:406B8000B07AC00709D02846403000900078002805D0102805D01F212EE01A212CE0002700E001272846FEF7E1F9002823D02E4680360822611C7068FBF73FFB7068617A77
:406BC00020300172A17A417270682146183008220B31FBF732FB21462846042213313430FBF72BFB39462846FDF7A2FF002810D1002F0FD012E007210322284600F022FAEB
:406C0000F28A08212846FDF775FA11212846FDF786FDF8BD06212846FDF784FD009801210176F8BD0813002010B5FDF7C1FF10BD38B504460020009020790D46042801D0D1
:406C400007281BD12046FDF71DF8012817D0684608F0ECFC002811D10C486A78807A00991040112210402075607E082210436076204600F079F92046FDF797FD38BD0822AB
:406C80002421204600F0DEF938BD0000081300207047000070B506460D460846FEF742F804463046FEF7ABFC00280CD0142C04D32946304600F0C7F805E00549A0000A58FA
:406CC000294630469047284608F000FD70BD0000FC1A010070B50D460021002801D0002400E00C4C002C14D020464030C177807F032802D12046FEF7B5FD2046FFF7A0FE21
:406D0000142D04D20449A800095820468847FEF7E1FC70BD7C1300204C1B010010B5014640310C4609780E2903D1FDF785FF0120207610BD10B54021095C0F2901D1FDF7BB
:406D40009EFF10BD4021095C0F2902D1002120304177704738B5044600220E4800920D46807A11210840C0060ED52046FEF758FC012809D0684608F059FC002803D1204639
:406D8000009900F053F938BD2946204600F05BF838BD00000813002010B51021FDF7B5F910BD10B54978FDF793FE10BD10B5FDF76EFF10BD012120304177704710B540218A
:406DC000095C0C2901D1FDF777FF10BD10B54021095C0D2901D1FDF76BFF10BD70B5044600790D46052803D0062801D0082802D12046FDF77FFE68784C21085509212046E4
:406E0000FDF790FC2046FFF7C8FD2046FCF73AFF0128A07805D0FFF7D9FC2046FEF702FE70BDFFF7DFFCF8E710B50446FF21FDF76CF916214C200155A078FFF7C7FC20464E
:406E4000FEF7F0FD10BD70B50C460546FEF7E2FB002802D02078687570BD21782846FFF78CFD70BD70B5054648780C46032802D12846FDF74AFE6078122803D110212846D1
:406E8000FDF743F970BD704738B5044600200D46009004212046FDF738F968782076E8780002A081A9780843A08168790002E08129790843E081607E042108436076800711
:406EC0000CD4684608F0B2FB00281CD12046009900F00EF9607E022108436076E079410611D5BF210840E07100F052FB00210090017021894180A1898180217E4170E18984
:406F0000C18001F071F838BD7047704770B50446C07815460A4600280AD00020E070C1B2A078FFF795F8A0782946FFF767F970BD0120F3E770B50546042008700C4684207A
:406F4000415908222031601CFBF777F929462046042238310930FBF770F90D2229462046FEF7F6FC002070BD70B5054609200C46087008220021601CFBF768F9287D6070FC
:406F800004480922C07AA07029462046FEF7E0FC002070BD081300200B4610B501460B20187001221846FEF7D3FC002010BD0000FEB50024164F03E0002C01D0002500E07F
:406FC0003D462846FFF71CFD00281BD15F20405D002817D16A4601A92846FFF7E9FC002810D1019869460A7806782946FEF7B0FC022E07D1A8780121FFF72AFC092128464F
:40700000FDF790FB641C2406240ED5D0FEBD00007C13002010B50B46122119708178D977014601221846FEF793FC10BD10B50B46132119708178D977014601221846FEF7D9
:4070400087FC10BD38B50546002000900C46684608F0ECFA002801D0072038BD00980D210170447002222946FEF772FC002038BD0B4610B501460520187001221846FEF76F
:4070800067FC002010BD0B4610B501460620187001221846FEF75CFC002010BD38B5054600200090684608F0C1FA002801D01F2038BD009C022020704C20405D6070A878FD
:4070C000E0772846FFF769FC022229462046FEF73FFC38BD10B50B46072119708178D977014602221846FEF733FC002010BD000010B50B460A49044608880C221A704A79AA
:407100005A709870000AD870C8881871000A5871062221461846FEF71BFC002010BD000008130020F8B50446403417460E460546E289617B8078FFF78DFA002F0DD100F03E
:407140002BFAE2896979FDF77DF9FFF78BF8608A002800D00120FFF78EFBE388A08A984200D90346628A218AA878FFF755FAA08A218AC000FAF7C0FF81B2ED208000FBF7B4
:40718000F3FCE089E188C0080A30081881B21920C001814200D90146A878FFF7E7FAA8783146FFF73DF801212846FEF755FCF8BD00B500F01FF800BD10B50A4604460B496C
:4071C0001046FAF799FF4034C01C218A80B2814200D208464900081A81B20548E182C089002802D0884200D2E08210BD710200004813002040184008704770B505460C463D
:40720000000702D5A0B2FDF72DFFE80702D0200EFCF7D6FF70BD70B5054650C8FCF77CFCFBF7CEFA2889C01F0300FBF7D9F90C07130B171A1D0B0B200B100C0BA0B2314666
